:100000000C94D9010C9420020C9420020C94200230
:100010000C9420020C9420020C9420020C942002D8
:100020000C9420020C9420020C9463200C94352133
:100030000C94CB1A0C9420020C9420020C942002F5
:100040000C9420020C9420020C9420020C942002A8
:100050000C9420020C94241B0C9420020C9420027B
:100060000C9420020C9420020C9420020C94200288
:100070000C9420020C9420020C9420020C94200278
:100080000C9420020C9420020C9420020C94200268
:100090000C9420020C9420020C9420020C94200258
:1000A0000C9420020C9420020C94200214111411C0
:1000B000461146119311BA12BA12BA12B1114A126C
:1000C0005B125B1256135613681368135F136813A1
:1000D0006813681356135613641368136813641374
:1000E000A221C921C122C921C12215223822C1223F
:1000F0008F229E224B4C3A206B633A2025752C2090
:10010000636F6C3A2025752C20726F773A20257525
:100110002C20707265737365643A2025750A00524D
:100120006177205D20583A2025642C20593A2025FB
:10013000640A004F5054313A2025642C204F50540B
:10014000323A2025640A00F100F300F200F400F5D1
:100150000044454255473A2064697361626C6564A6
:100160002E0A0044454255473A20656E61626C652F
:10017000642E0A000A0025303862003A200025303B
:100180003258000A722F632030313233343536371B
:100190000A000A002530325820006B6579626F61D1
:1001A00072645F7265706F72743A20000A002530C5
:1001B0003258006B6579626F6172645F7365745F5A
:1001C0006C65643A20004F6E6573686F743A206105
:1001D00063746976653A2025640A005B735D004BA1
:1001E0006579626F6172642073746172742E0A00A3
:1001F0005B575D005B535D005B525D005B445D00DF
:100200005B435D001E0354007200610063006B00DD
:10021000620061006C006C0020004D0069006E00FF
:1002200069000000260350006C006F006F00700032
:100230007900200043006F00720070006F007200B0
:100240006100740069006F006E000000040309047F
:1002500009027400040100A0320904000001030136
:100260000100092111010001224000070581030856
:10027000000109040100010301020009211101002C
:10028000012247000705820308000109040200015A
:10029000030000000921110100012232000705833B
:1002A00003200001090403000203000000092111DA
:1002B0000100012222000705840320000107050434
:1002C0000320000112011001000000084350AB1E82
:1002D0000100010200010631FF0974A10109751531
:1002E0000026FF009520750881020976150026FF7B
:1002F00000952075089102C005010980A1018503C0
:1003000019012AB700150126B70095017510810063
:10031000C0050C0901A101850419012AA0021501DB
:1003200026A002950175108100C005010902A101F6
:100330000901A100050919012908150025019508E1
:10034000750181020501093009311581257F95026A
:100350007508810609381581257F95017508810684
:10036000050C0A38021581257F950175088106C0A4
:10037000C005010906A101050719E029E7150025B7
:10038000019508750181029501750881010507191C
:100390000029FF150026FF00950675088100050855
:1003A00019012905950575019102950175039101C2
:1003B000C00011241FBECFEFDAE0DEBFCDBF04B610
:1003C00003FE27C08091570390915803A0915903D1
:1003D000B0915A038730904BA740B04BD1F41092A4
:1003E0005703109258031092590310925A0314BEE7
:1003F00084B7877F84BF0FB6F894A895809160007A
:10040000886180936000109260000FBEE0E0F8E326
:10041000099511E0A0E0B1E0E8E2F8E402C005903F
:100420000D92AC39B107D9F723E0ACE9B1E001C0D6
:100430001D92A735B207E1F70E94981D0C94122473
:100440000C940000FF93EF93E0919C01F0919D01CB
:10045000309709F00995EF91FF910895FC0185917E
:10046000803011F0EFDFFBCF0895FF27E0E230E2AC
:1004700047FF0CC0419597FF09C0EDE2609570956C
:1004800080959095611D711D811D911D27FF02C0F2
:10049000219530E350E2AA27660F771F881F991F26
:1004A000AA1FA41710F0A41B63955A95A9F7AA30A8
:1004B00008F0A95FA05DAF93F39561157105810503
:1004C000910541F7ED3211F4EF93F395F21718F41B
:1004D0003F93F395FBCF8F91B5DFFA95E1F7089540
:1004E000E991F9918591803021F0853219F0AADFE8
:1004F000F9CF089520E0E89455915532C1F3503377
:1005000011F4689455915A3348F4505390F3220FE4
:10051000022E220F220F200D250FF4CF0EF421956D
:1005200089919991533619F3533729F1533559F17C
:10053000BC0188279927E8945C3621F48991999128
:1005400068945591543639F446EF7EF077FF0DC02C
:100550008FEF9FEF0AC055374AE039F0583540E138
:1005600021F0523642E009F00895FF93EF937DDFCA
:10057000EF91FF91B7CFFF93EF93FC018191803012
:10058000B9F360DFFBCFFF93EF9368DFF1CFDF9329
:10059000CF93CDB7DEB72596A3DFCF91DF91089536
:1005A000279A3E9A249A08952C9808952C9A089593
:1005B0003E98469898E080E02F9825E02A95F1F73C
:1005C000000026B126FB222720F9880F822B2F9AC4
:1005D00025E02A95F1F70000915071F708953E9AB1
:1005E00027E030E090E02F98AC01022E02C0559534
:1005F00047950A94E2F740FF02C0469A01C0469828
:100600004AE04A95F1F700C02F9A2150310958F776
:1006100085E18A95F1F700000895CF93DF93D82FF5
:10062000C62F0E94D4028D2F80680E94EF028C2F6B
:100630000E94EF02DF91CF910C94D60287FD806873
:100640000895CF93DF930E94D40283E60E94EF02C5
:100650000E94D802C82F0E94D802D82F0E94D6022A
:100660008C2F0E941E03C82F8D2F0E941E03982FCF
:100670008C2FDF91CF910895682F89E10C940D03A1
:100680001092EF02109267021092AB028FEF93E08C
:100690009093AD028093AC021092F2021092F1029C
:1006A0001092AE021092360310923D0310923C035A
:1006B00010923A0310923903109268021092AA0223
:1006C00090933803809337031092280210922702E8
:1006D0001092F302109269021092F7021092F60241
:1006E0001092B0021092AF021092F00210923B03EF
:1006F0001092F5021092F40210926B0210926A02AC
:100700000895FC01208131812E3131052CF42F5FB9
:100710003F4F3183208308951182108281E0FB01D5
:10072000808308952F923F924F925F926F927F92B3
:100730008F929F92AF92BF92CF92DF92EF92FF92F1
:100740000F931F93CF93DF9300D0CDB7DEB7FC019B
:100750003B012A013A832983DB018D919C911197FA
:10076000E817F90714F4ED93FC93D2018D919C9155
:1007700011978E179F0714F4ED93FC93D2012D90DF
:100780003C90D3012D913C91C101821B930B8A3087
:1007900091050CF451C063E070E00E94B023620F39
:1007A000731FE617F707ACF4F8018081882369F01E
:1007B000D401ED91FC91EE0FFF1FEC0DFD1D318278
:1007C0002082698D7A8DC40118C081E0E981FA81A7
:1007D00032C06E177F0784F5A981BA818C91882376
:1007E00041F1D501ED91FC91EE0FFF1FEE0DFF1DC4
:1007F000318320836F89788DC5010E948103F301C5
:1008000020813181D2018D919C91821B930B97FDA8
:10081000019695958795820F931FF30191838083AD
:10082000D2018D939C93E981FA811082D8011C92A8
:1008300003C081E0F8018083A98DBA8D8C91882353
:1008400081F0F6019601225C3F4F80E090E04191FB
:100850005191840F951F2E173F07C9F76FE170E084
:1008600015C0F401608171816115710599F0F6017F
:1008700020E030E080E090E0261737073CF441911B
:100880005191840F951F2F5F3F4FF6CF0E94B023E9
:100890009B0103C0D2012D913C91EF89F88D80819D
:1008A000882381F0F701A701425C5F4F80E090E070
:1008B00061917191860F971F4E175F07C9F76FE11E
:1008C00070E015C0D5016D917C916115710599F0AD
:1008D000F70140E050E080E090E0461757073CF415
:1008E000A191B1918A0F9B1F4F5F5F4FF6CF0E947E
:1008F000B023FB0103C0D301ED91FC91C9018E1B14
:100900009F0B63E070E00E94B023CB018E0F9F1F0E
:100910000F900F90DF91CF911F910F91FF90EF906B
:10092000DF90CF90BF90AF909F908F907F906F900F
:100930005F904F903F902F9008958F929F92AF922B
:10094000BF92CF92DF92EF92FF920F931F932AEA0A
:1009500032E03F932F9328E632E03F932F9329E331
:10096000822E23E0922E3CE3A32E33E0B32E41EB04
:10097000C42E42E0D42E58EFE52E52E0F52E06E3C9
:1009800013E02EEA32E041EF52E06CEA72E00E949E
:1009900092039093F5028093F4020F900F900F90C2
:1009A0000F901F910F91FF90EF90DF90CF90BF902D
:1009B000AF909F908F9008958F929F92AF92BF9229
:1009C000CF92DF92EF92FF920F931F932BE333E0CE
:1009D0003F932F9320EF32E03F932F932FEA822E05
:1009E00022E0922E36EFA32E32E0B32E4CE6C42E38
:1009F00042E0D42E59E2E52E52E0F52E09E612E04F
:100A000023EF32E047E252E067E373E00E94920393
:100A100090936B0280936A020F900F900F900F904B
:100A20001F910F91FF90EF90DF90CF90BF90AF900C
:100A30009F908F9008950F931F93CF93DF938C0116
:100A4000EB0180916802882321F08091AA02811134
:100A500003C0C8010E949D048091F002882321F008
:100A600080913B03811103C0CE010E94DC044091C0
:100A7000F4025091F50280916A0290916B022091EC
:100A8000EF02211121C0041715077CF4C817D907FC
:100A90000CF469C083E08093EF028091AB0288235D
:100AA00009F461C01092AB0238C0C817D9070CF026
:100AB0005AC081E08093EF0280916702882309F495
:100AC00052C01092670238C02130B1F404171507E4
:100AD0003CF0C817D9070CF446C01092EF0207C0CB
:100AE000C817D9070CF03FC082E08093EF02209333
:100AF000AB021092670237C0223009F504171507C0
:100B00007CF0C817D9077CF581E08093EF028091D3
:100B10006702882341F11092670281E090E025C0CE
:100B2000C817D90704F183E08093EF028091AB02EC
:100B30008823C9F01092AB028FEF9FEF16C0041705
:100B4000150734F0C817D90774F01092EF0206C0E9
:100B5000C817D90744F482E08093EF0281E08093C4
:100B600067021092AB0280E090E0DF91CF911F917D
:100B70000F910895FC01648343830895EF92FF92DF
:100B80000F931F93CF93DF93EC0180919F0190917E
:100B9000A0010E94151B8436910508F44CC0809179
:100BA000A1019091A2010E94151B059708F443C072
:100BB0008091A30181113FC00E94FD1A9093A20170
:100BC0008093A10180E00E94650E8C0184E00E9468
:100BD000650E7C0180919E018823A1F0809118020E
:100BE00080FF10C0FF92EF921F930F9383E391E079
:100BF0009F938F930E94C7020F900F900F900F90BA
:100C00000F900F90B701C8010E941B05882399F02F
:100C10004B81042E000C550B480F511D6C81062E84
:100C2000000C770BCE01DF91CF911F910F91FF90B8
:100C3000EF900C94BA05DF91CF911F910F91FF9027
:100C4000EF900895FC01618342830895EF92FF9233
:100C50000F931F93CF937C010E942103C92F811111
:100C600002C0992389F190911802082F082E000CD8
:100C7000110B93FF16C090FF14C02C2F0C2E000CEC
:100C8000330B3F93CF931F938F938FE191E09F930B
:100C90008F930E94C7020F900F900F900F900F90AC
:100CA0000F906C2FCC0F770B880B990B0E942C2385
:100CB00090580E94F422A801C701CF911F910F9173
:100CC000FF90EF900C942206CF911F910F91FF900F
:100CD000EF900895DF92EF92FF920F931F93CF93BF
:100CE000DF9300D000D01F92CDB7DEB78C017B011F
:100CF000FB0182811F928F9381811F928F9380814C
:100D00001F928F931F930F9384EF90E09F938F9385
:100D10000E94C7020FB6F894DEBF0FBECDBFF70129
:100D20008081813069F4818181110AC00E94FD1A9D
:100D30009093A00180939F01F70182818093A3018A
:100D4000B701C8010E94AE07D82E882309F447C016
:100D50000F35FDE51F0711F5F70182818823F1F0BA
:100D600080913E0390E0019663E070E00E949C2336
:100D700080933E0360913E0370913F038091400356
:100D8000909141030E94B719E0913E03F0E0EE0F0D
:100D9000FF1FE050FF4F80810E943C03015F11095B
:100DA00008301105E0F40E94070C3A834B835C8302
:100DB0006D83F701828141E050E001C0440F0A9544
:100DC000EAF7882311F0422B02C0409542235A8152
:100DD0006B817C818D810E94270C0E94D10B8D2D0F
:100DE0000F900F900F900F900F90DF91CF911F9168
:100DF0000F91FF90EF90DF9008950F931F93CF9383
:100E0000DF93CDB7DEB72C970FB6F894DEBF0FBED9
:100E1000CDBF8098889884988C988CE0E4E1F1E0CC
:100E2000DE01119601900D928A95E1F7FE0131964F
:100E30009E01235F3F4F41E050E08191A82FA29592
:100E4000AF70B0E091966C9191978F708A0102C05B
:100E5000000F111F8A95E2F7C801962F982B9196E3
:100E60009C93919792969C919297809589239296C4
:100E70008C932E173F0709F72C960FB6F894DEBF18
:100E80000FBECDBFDF91CF911F910F910C943A0F00
:100E90000E94D0020E9440036AE58AE30E940D038B
:100EA0002FE78FEA92E0215080409040E1F700C0A8
:100EB00000000E942103E0913E03F0E0EE0FFF1FCF
:100EC000E050FF4F80810C943C03CF93DF9300D020
:100ED00000D01F92CDB7DEB70E94070C29833A835A
:100EE0004B835C836D83CE0101960E94BE05CE01CB
:100EF00001960E94260649815A816B817C818D81F1
:100F00000E94270C0E94D10B0F900F900F900F9012
:100F10000F90DF91CF91089582E080933E0360911E
:100F20003E0370913F0380914003909141030E94E2
:100F3000B7190C94C3190E94B31960933E037093C0
:100F40003F038093400390934103643010F00E946C
:100F50008C070C94ED0A089581E0089581E00895CE
:100F600008950C94B0071F93CF93DF9300D000D067
:100F70001F92CDB7DEB749835A836B833091C50189
:100F800089819A81311114C0662359F0222349F0D6
:100F90000E941418182F682F89819A810E94BB170C
:100FA00003C00E94E717182F69817A81812F04C03E
:100FB0000E94141869817A810F900F900F900F9002
:100FC0000F90DF91CF911F910C94A308FC01262F65
:100FD000408151816281738184810C94B307CF93E6
:100FE000DF93EC0160E00E94E607BE01DF91CF9144
:100FF0000C94B1070E94960A0C949B070C94EB0A80
:1010000008950E9444130E9400082FEF84E39CE09F
:10101000215080409040E1F700C000000C944A1B32
:101020000F931F93CF93DF938C0161E00E94E6073B
:10103000EC01B8010E946A06882309F45BC0B8017C
:10104000CE010E94B70C882309F454C0B801CE0128
:101050000E94090D882309F44DC0B801CE010E94F9
:10106000340E882309F446C0F80182818823D9F11F
:10107000CF3D8CE5D80779F140F4C115FCE5DF07D9
:1010800091F0C130DC4591F02EC0CC35EDE5DE07A6
:1010900041F1CD35FDE5DF0709F1CB35DD4519F52A
:1010A0000E94C41820C00E94010824C08091180228
:1010B000C82FC095C170C0FB80F980931802CC2363
:1010C00029F083E691E00E942E0214C081E591E0B0
:1010D0000E942E0210C00E94271A0CC00E94BB184A
:1010E00002C00E94C718C801DF91CF911F910F91D4
:1010F0000C94AC07C0E08C2FDF91CF911F910F9122
:1011000008958295982F937344E0949F9001112441
:101110008C7C86958695282B822F8575880F2A7A58
:101120002695822B089508950C94930881E00895E4
:101130000C949608CF93C82F0E9494088C2F0E947D
:101140009808CF910895272F30E0280F311D85E0B2
:10115000829FF001839FF00D1124E60FF11DEE0F29
:10116000FF1FE95BFE4F859194910895CF93DF9324
:101170000E94A3080E94A709EC0181159245F0F591
:10118000C11581E5D80708F0A9C0C83ED10528F5EA
:10119000C03ED10508F0D7C0C83AD10578F4C53AA9
:1011A000D10508F074C0C130D10509F4CCC008F4F1
:1011B000C8C0C430D10508F0C6C0C3C0CF3BD105FC
:1011C00008F0BFC0C85AD0E0CC0FDD1FC05EDE4FB4
:1011D0000990D881C02DD464B6C0C11590E5D90757
:1011E00008F060C0C11520E4D20708F058C0CE0155
:1011F0009A9581159F4108F4A6C0A3C0C11586E544
:10120000D80718F5C11595E5D90708F080C0C115B4
:1012100024E5D20708F076C09E01237033278C2F77
:1012200086958695C115D34508F05DC0C1E0D0E034
:1012300002C0CC0FDD1F2A95E2F720E2829FC00199
:101240001124C82BD92BDC687EC0C1152AE5D20732
:1012500078F4C11589E5D80708F063C0C11598E591
:10126000D90708F46EC0DC2FCC27C06FD06A6BC0E2
:10127000CE0190568115904208F063C08D2F8F717A
:101280000E943B0ADD27D0628F71D82B5CC0C55A03
:10129000D0E0C25BDE4FC881D0E0D06454C0DF70C4
:1012A000D06A51C0CE0174E0969587957A95E1F7A2
:1012B00083709C2F937021E030E002C0220F331F17
:1012C0009A95E2F73C68382BCF70C695C69580E2B8
:1012D000C89FE0011124C22BD32B35C0DC2FCC27B3
:1012E000C16FD06A30C0C1E0D0E002C0CC0FDD1FBA
:1012F0002A95E2F720E2829FC0011124C82BD92B46
:10130000DA6821C0DC2FCC27C46FD06A1CC08C2FB8
:101310000E943B0A8F71C82FD0E0DC2FCC27D0620F
:1013200012C08C2F8F700E943B0A94E0D695C7950F
:101330009A95E1F7CF70D0E0DC2FCC27D069C82B8D
:1013400002C0C0E0D0E0CE01DF91CF910895823895
:10135000910569F1B0F48133910509F46DC048F449
:101360008932910509F463C08A32910509F469C094
:1013700008958533910509F455C089339105B9F075
:101380000895833E910569F138F4803E9105B1F0EE
:10139000823E910509F10895863E9105A9F1873EA7
:1013A0009105B9F1843E910509F064C023C02091F4
:1013B000420320FD4FC021FD4DC00895809142039E
:1013C00080FD44C08091430380FF44C0809142036C
:1013D00084FD42C083EE4DC08091420382FF38C03D
:1013E000F5CF8091420382FD33C08091430380FD9D
:1013F00031C0ECCF8091430381FF32C08091420322
:1014000084FD2AC087EE35C08091420383FF26C049
:10141000F5CF8091420383FD21C08091430381FD7C
:101420001FC0ECCF8091420385FD1CC01DC0809180
:10143000420385FD19C016C08091420386FD16C087
:1014400017C08091420386FD13C010C089E311C00C
:1014500082EE0FC080EE0DC080E00BC086EE09C0AA
:1014600084EE07C089E205C085E303C08AE201C0BB
:1014700081E390E008959091420392FF0DC0282FE0
:101480002871283019F4877F846006C0282F2471C2
:10149000243011F48B7F886093FF0DC0282F2871B2
:1014A000283119F4877E846106C0282F24712431E5
:1014B00011F48B7E88612091430320FF0DC0382FEB
:1014C0003871383019F4877F816006C0382F317148
:1014D000313011F48E7F886021FF0DC0282F2871D4
:1014E000283119F4877E816106C0282F21712131AE
:1014F00011F48E7E886194FD877E08950C947C198A
:101500000E941D0B8FE39CE90197F1F700C00000DA
:101510000E941D0B80E00E94BA0A83FF04C00E9453
:101520007E0A0C944A1B08950C94800A0E9482192A
:10153000811102C00E94271A0E948D1980931802FF
:101540000E94951990934303809342030E94940A4A
:101550000E949119682F70E080E090E00E94BD1613
:10156000609103027091040280910502909106023D
:101570000C94F516E82FF0E0EB5BFC4F80810895AA
:1015800083E891E00E942E021F921F928EE791E065
:101590009F938F930E94C7028BE791E00E942E02D7
:1015A000809145030E9481081F928F9386E791E006
:1015B0009F938F930E94C7028DB79EB708960FB670
:1015C000F8949EBF0FBE8DBF84E791E00C942E026D
:1015D00008950C94E80A0C94E90A0C94E80ACF9355
:1015E000DF93A1E5B1E066E571E041E050E08D9167
:1015F0008F3F71F46A177B07D1F710924403109262
:10160000450381E00E945B0BDF91CF910C94FA07B8
:10161000E82FE295EF70F0E021A18F70EA0102C09F
:10162000CC0FDD1F8A95E2F7CE019C2F9095922377
:1016300091A392A1892B82A3DDCFCF93A1E5B1E045
:1016400040E050E030E061E070E02D912F3FC1F0CC
:10165000E22FE295EF70F0E080A190E02F7002C0E1
:10166000959587952A95E2F780FD07C0CB01042E5A
:1016700001C0880F0A94EAF702C080E090E0382B9E
:101680004F5F5F4F4530510501F780914403831749
:1016900021F030934403C1E001C0C0E02C2F41E0B1
:1016A00065E473E084E493E00E945C0B0E94FE0713
:1016B0008C2FCF9108950895FF920F931F93CF938E
:1016C000DF938C01F62ED72FC42F222349F081E01F
:1016D0008093A6010E94FD1A9093A5018093A40116
:1016E0008091A6018823C1F08091A4019091A50169
:1016F0000E94151B069780F0EF2DFD2FD8014C2F6F
:1017000050E0CD01801B910B841795071CF48D913F
:101710008193F7CF1092A601DF91CF911F910F9186
:10172000FF900895EF92FF920F931F93CF93DF9353
:10173000CDB7DEB72A970FB6F894DEBF0FBECDBF88
:101740006B837C838D83088719872A874E1118C085
:10175000552311F0F51214C08B81882319F0988558
:1017600098130EC08D81882319F09A85981308C0AC
:101770009C81992339F081E02985291304C002C096
:1017800081E001C080E081702A960FB6F894DEBF38
:101790000FBECDBFDF91CF911F910F91FF90EF90C2
:1017A0000895EF92FF920F931F93E090A701F0909E
:1017B000A8010091A9011091AA012091AB014091CB
:1017C000AC015091AD016091AE017091AF0180917B
:1017D000B0010E94920B882321F08CEA91E00E94D4
:1017E000E20E1092AD011092AE011092AF01109274
:1017F000B00185E0ECEAF1E0A7EAB1E001900D92DA
:101800008A95E1F71F910F91FF90EF900895CF9384
:10181000DF9300D000D01F92CDB7DEB785E0ECEAB1
:10182000F1E0DE01119601900D928A95E1F7298190
:101830003A814B815C816D8170E080E090E00F9097
:101840000F900F900F900F90DF91CF910895CF934D
:10185000DF9300D000D01F92CDB7DEB749835A8303
:101860006B837C838D8385E0FE013196ACEAB1E029
:1018700001900D928A95E1F70F900F900F900F90C5
:101880000F90DF91CF9108950F931F93CF93DF9324
:10189000C42FD22FFC0182818823C9F04093B30169
:1018A0000E94FD1A9093B2018093B10180E28C0FE7
:1018B000883008F057C0C77081E001C0880FCA9512
:1018C000EAF7DF91CF911F910F910C94CF10809187
:1018D000B301481330C08091B1019091B2010E94D0
:1018E000151B883C910538F510E21D0FCD17B9F096
:1018F00080E28C0F883040F4C77081E001C0880F0F
:10190000CA95EAF70E94D610183028F581E09D2F7D
:10191000977001C0880F9A95EAF70E94CF10802F28
:101920000E94C6101830F0F4D77081E001C0880F13
:10193000DA95EAF70AC080E28C0F883098F4C77015
:1019400081E001C0880FCA95EAF7DF91CF911F911E
:101950000F910C94D610802FDF91CF911F910F9192
:101960000C94C610DF91CF911F910F9108950F93A2
:101970009C01CB01243F4CE5340731F188F4293D2B
:10198000FCE53F07D9F02A3D4CE5340779F1283DC5
:101990003C45A9F506E221EE41EE68ED7CE52BC061
:1019A000263FFCE53F07E1F0A8F0273F3C4539F52D
:1019B00007E225EE46EE67EF7CE51DC007E225EE67
:1019C00045EE69ED7CE517C006E221EE40EE64EFDE
:1019D0007CE511C007E225EE44EE65EF7CE50BC027
:1019E00006E221EE42EE66EF7CE505C008E221E06A
:1019F00045EE6AED7CE50E94440C80E008C0FC01E5
:101A00008281882319F01092B30101C081E00F9107
:101A10000895CF93DF93EC01FB018281882309F4C1
:101A20001FC1C230FCE5DF0708F41BC1C6319CE5CD
:101A3000D90738F09E012B5F3C452930310508F06D
:101A400010C10E9495199093430380934203C031C3
:101A5000ECE5DE0709F4C3C008F041C0C8308CE5EE
:101A6000D80709F49AC0F0F4C430ECE5DE0709F4B5
:101A700087C068F4C2308CE5D80709F477C0C3305A
:101A8000DC4509F0E3C080914203826076C0C63035
:101A9000ECE5DE0709F46EC008F07BC080914203DC
:101AA00088606BC0CC308CE5D80709F485C068F439
:101AB000CA30ECE5DE0709F474C008F079C00E9472
:101AC000441380914203806858C0CE308CE5D8071B
:101AD00009F476C008F07FC0809142038BC0CC3FF0
:101AE000ECE5DE0709F44FC018F5C3318CE5D807E3
:101AF00009F47DC078F4C131ECE5DE0709F473C068
:101B0000C231DC4509F0A2C00E9444138091420317
:101B10008F7733C0C5318CE5D80709F472C008F45B
:101B200086C0CB3FDC4509F091C0809143033EC0A5
:101B3000C115FDE5DF0709F45FC058F4CE3F9CE511
:101B4000D90709F444C008F43FC080914303826080
:101B50002DC0C230FDE5DF0709F475C008F45DC093
:101B6000C330DD4509F072C080E06EC08091420351
:101B7000816003C08091420380618093420366C00C
:101B80008091420311C0809143038260809343039C
:101B90005DC0809142038062F0CF809142038064F7
:101BA000ECCF8091420388608460E7CF8160EECF04
:101BB000809142038E7FE1CF809142038D7FDDCF04
:101BC00080914203877FD9CF8091430318C08091D1
:101BD00043038D7FDBCF809142038F7ECECF8091F8
:101BE00042038F7DCACF809142038F7BC6CF809105
:101BF0004203877F8B7FC1CF809143038D7F8E7F90
:101C0000C5CF8091420382FB222720F991E09227E1
:101C100090FB82F990FB83F9B0CF80914303982F1A
:101C2000909591708E7F892B90FB81F9AFCF0E94A8
:101C300044138091420387FB222720F991E09227E9
:101C400090FB87F99ACF81E00E94291A8091420384
:101C5000909143030E94A6190E94441380E001C0A2
:101C600081E0DF91CF910895CF93DF9386319C453A
:101C700041F5EB010E94CA18982F8A812091070133
:101C800030910801882379F09A7A81E009F480E0A4
:101C90008093B401911102C069E201C065E3C901FA
:101CA0000E94701A0AC08091B401811102C069E2D9
:101CB00001C065E3C9010E94721A0E940F1980E0F9
:101CC00001C081E0DF91CF91089596E890937A006A
:101CD000982F9072906890937B008F71909106017D
:101CE000892B80937C0080917A00806480937A00B5
:101CF00080917A0086FDFCCF809178002091790058
:101D000090917A009F7790937A0090E0922B0895BB
:101D10009093BA018093B9010895E091B901F091CF
:101D2000BA01309721F00190F081E02D099480E014
:101D30000895EF92FF920F931F93CF93DF93E0915B
:101D4000B901F091BA013097B1F18C010280F381B1
:101D5000E02D09958091180282FF2DC080FF04C0FC
:101D60008AE991E00E942E02E80118E084E9E82E59
:101D700081E0F82E8091180280FF0BC088811F92AD
:101D80008F93FF92EF920E94C7020F900F900F90D7
:101D90000F90115021961111EDCF8091180280FF04
:101DA0000AC082E991E0DF91CF911F910F91FF90DE
:101DB000EF900C942E02DF91CF911F910F91FF9025
:101DC000EF900895E091B901F091BA01309721F0B8
:101DD0000480F581E02D099408952091B701309198
:101DE000B8012817390771F09093B8018093B701B3
:101DF000E091B901F091BA01309721F00680F781A6
:101E0000E02D099408952091B5013091B60128176D
:101E1000390771F09093B6018093B501E091B90153
:101E2000F091BA01309721F00084F185E02D0994FA
:101E300008950E94091B6093C1017093C2018093B1
:101E4000C3019093C4016093BD017093BE01809360
:101E5000BF019093C001089585B7806885BF85B79D
:101E6000806885BF089581E008950C94330F08952C
:101E70000C94370F0C94370F0C94370F0E942C0FD3
:101E800085E39DE10E946E1B0E943C0F0C94FD06B1
:101E90000E94380F0C94370F0E94F41A0E94EF0A28
:101EA0000E9448070C94AB07CF93C82F809118026B
:101EB00082FF1EC080FF04C083EB91E00E942E02CF
:101EC0008091180280FF0CC01F92CF938EEA91E0A0
:101ED0009F938F930E94C7020F900F900F900F90C7
:101EE0008091180280FF04C08CEA91E00E942E02CB
:101EF0008C2FCF910C949A08EF92FF920F931F931F
:101F0000CF93DF93CDB7DEB72A970FB6F894DEBF35
:101F10000FBECDBF0E941D0B81110E94190F80E0E2
:101F20000E94BA0AF82EE090BC01E82689F48FEFEF
:101F300089838A831B820E94FD1A8160782F9D838A
:101F40008C8349815A816B818D810E94FB0F2CC04B
:101F50008091180281FD0E94C00A00E011E08E2DE0
:101F60008123E9F00E94350F882399F00E831F82A8
:101F7000F12281E009F480E088870E94FD1A8160E7
:101F8000782F9A8789874E815F8168858A850E942C
:101F9000FB0F8091BC0118271093BC0105C00F5F97
:101FA000110F0530E1F6C3CF0E9465070E948D0E28
:101FB0009091BB01891791F00E948D0E8093BB0117
:101FC0002A960FB6F894DEBF0FBECDBFDF91CF913A
:101FD0001F910F91FF90EF900C94540F2A960FB61B
:101FE000F894DEBF0FBECDBFDF91CF911F910F914F
:101FF000FF90EF900895DF92EF92FF920F931F935F
:10200000CF93DF93CDB7DEB72B970FB6F894DEBF33
:102010000FBECDBFF42E052F162FE72ED82E61113F
:102020000E94EA18FE01319686E0DF011D928A9532
:10203000E9F77E2D4F2D502F612F8D2D9E810E940F
:10204000FD152B960FB6F894DEBF0FBECDBFDF9106
:10205000CF911F910F91FF90EF90DF900895FC01B9
:10206000808191810E9456180895CF93882309F4A6
:1020700048C0C82F8CEF8C0F813AD0F46C2F809120
:102080000701909108010E943A1A882349F06C2FA9
:1020900080910701909108010E94721A0E940F1905
:1020A0006C2F80910701909108010E94701A0CC05A
:1020B00080E28C0F883058F4C77081E001C0880F2F
:1020C000CA95EAF70E94CD18CF910C940F19EBE551
:1020D000EC0FE33040F4F0E0EC57FE4F808190E0ED
:1020E000CF910C94ED0EC85AC73158F4EC2FF0E0A4
:1020F000EE0FFF1FEA5AFE4F80819181CF910C9421
:10210000030FCF910895882349F1682F8CEF860F34
:10211000813A38F480910701909108010E94721A67
:102120000CC080E2860F883050F4677081E001C0F7
:10213000880F6A95EAF70E94D3180C940F198BE563
:10214000860F833020F480E090E00C94ED0E685A06
:10215000673120F480E090E00C94030F08951F9302
:10216000CF93DF93182FEB010E943510209741F099
:102170008FE99FE00197F1F700C000002197F6CFAB
:10218000812FDF91CF911F910C948310893319F027
:1021900060E070E002C060E570E00C94AF1088234E
:1021A00021F00E94CD180C940F190895882321F076
:1021B0000E94D3180C940F190895CF92DF92EF92DA
:1021C000FF920F931F93CF93DF937C01D62FC72FDE
:1021D000FC011281058102950F700E948E188823E0
:1021E00099F0112389F08C2F807F803421F080E2D8
:1021F0008D0F883048F082E00E945F190E948E188F
:1022000091E0D82ED92601C0D12CCC2EC2948FE0DB
:10221000C8228C2D90E08C30910508F0ABC1FC01F8
:10222000EA5AFF4F0C94C4238C2F807FCF708823F1
:1022300011F0C295C07F112399F0CC2309F486C117
:1022400080E28D0F883010F0D11104C08C2F0E94D5
:10225000CD1803C08C2F0E94DD180E940F1976C183
:102260008D2F0E948310CC2309F484C180E28D0F4E
:10227000883010F0D11104C08C2F0E94D31803C0F5
:102280008C2F0E94E3180E940F1974C18C2F807F3D
:10229000CF70803211F0C295C07FDD2319F0D130AC
:1022A000C9F022C0112371F0002341F0013031F454
:1022B0000E94F0188C2B0E94F8185CC10E94F01844
:1022C0008C2B1DC0002319F0013009F453C10E946A
:1022D000051925C0112321F0063008F04BC10EC0AE
:1022E000053008F047C11BC0112361F0002331F015
:1022F000F701858180FF2AC18F7085838C2F0E9412
:10230000CF1038C1002359F0D93309F030C1FFEFA5
:1023100007EE13E0F15000401040E1F726C18C2F8A
:102320000E94D61027C18C2F86958695837019F050
:10233000813061F01FC1112321F08D2F9C2F9370EC
:1023400002C080E090E00E94ED0E1CC1112321F03C
:102350008D2F9C2F937002C080E090E00E94030FAD
:1023600011C18C2F837009F047C0111107C12D2FA7
:10237000229526952770220F220F6D2F6F70862FC2
:1023800090E0A0E0B0E0022E04C0880F991FAA1FC1
:10239000BB1F0A94D2F7D4FF10C04FE050E060E0BA
:1023A00070E004C0440F551F661F771F2A95D2F7AF
:1023B000409550956095709503C040E050E0BA019B
:1023C000C695C695C3708A019B01082B192B2A2B31
:1023D0003B2BC901B801C23049F058F4C13019F0A3
:1023E0000E94D116CBC00E94BF16C8C00E94E3163F
:1023F000C5C00E94BD16C2C0112319F08C2F817078
:1024000001C08695882309F4B9C02D2F2295269501
:102410002770220F220F6D2F6F70862F90E0A0E0A3
:10242000B0E0022E04C0880F991FAA1FBB1F0A9498
:10243000D2F7D4FF10C04FE050E060E070E004C07D
:10244000440F551F661F771F2A95D2F74095509568
:102450006095709503C040E050E0BA01C695C695FE
:10246000C3708A019B01082B192B2A2B3B2BC90116
:10247000B801C23049F058F4C13019F00E949617E3
:102480007DC00E9484177AC00E94A81777C00E945E
:10249000F71674C0CF70112339F08C2F0E941D17CE
:1024A0008D2F0E94CF106AC08D2F0E94D6108C2FC6
:1024B0000E943E1763C0D23F01F128F4D03F41F0A3
:1024C000D13FA1F03FC0D33FF9F0D43F39F13AC03A
:1024D000112341F0053008F04DC08C2F8F710E9400
:1024E000631748C0063008F045C0F7CF112339F014
:1024F0008C2F8F710E941D173DC01123C9F38C2FA3
:102500008F710E943E1736C0112329F08C2F8F71D6
:102510000E9408172FC00E9403172CC0112349F0F6
:10252000CF718C2F0E941D1763E08C2F0E944419DD
:1025300021C081E00E945F190230E0F082E00E9439
:102540005F1918C0112331F0002391F28D2F0E94E2
:10255000351010C0002399F2D93349F41FEF27EE4C
:1025600033E0115020403040E1F700C000008D2FD3
:102570000E94831088EF8C0D843020F40E948D0E11
:102580000E949A08DD20C9F00E948A1880FD15C0BB
:10259000F70112820E9484180E941D17C7010E9431
:1025A000FE120E948418DF91CF911F910F91FF902E
:1025B000EF90DF90CF900C943E17DF91CF911F9159
:1025C0000F91FF90EF90DF90CF9008950F931F939E
:1025D000CF93DF93EC01688179818A810E94611831
:1025E0008C010E94BA170E94AB16B801CE010E945E
:1025F000DD10DF91CF911F910F910895CF93DF935D
:10260000EC01988189812B813C81232B31F08F3F14
:1026100031F481E09F3F19F403C081E001C080E004
:1026200080FD19C0CE010E94100881110CC00E94CB
:102630008E18882381F08A81882369F082E0DF91F7
:10264000CF910C945F19CE010E94E612CE01DF916A
:10265000CF910C94EF07DF91CF91089580E090E047
:102660000E94ED0E80E090E00E94030F0E94EA18A5
:102670000E94ED180C940F198091070190910801A8
:102680000E94741A0C942E130E94DA180C943C13B6
:10269000E92FE295EF704E2F50E0FA013297EE30BD
:1026A000F105B0F4EE59FF4F0C94C423803F91F034
:1026B00018F4883E68F40EC0843F51F40BC0883E85
:1026C00048F0813F29F406C093FB882780F90895DC
:1026D00080E0089581E008950E9456180E944813F2
:1026E0000895CF93DF9300D000D01F92CDB7DEB70F
:1026F0000F900F900F900F900F90DF91CF91089552
:10270000CF93DF9300D000D000D0CDB7DEB72696B0
:102710000FB6F894DEBF0FBECDBFDF91CF91089505
:102720001F93CF93DF93C091C60116E08091C7013C
:10273000C81799F0D0E01C9FF0011D9FF00D1124E7
:10274000E853FE4F4081518162817381848195817C
:102750000E9480132196C770E9CFDF91CF911F911E
:1027600008954091F8015091F9016091FA0170913A
:10277000FB018091FC019091FD010C9480130F935B
:102780001F93CF93DF938091FD0182958F7009F0A5
:102790005DC08091FA01882309F458C08091C60178
:1027A0001091C7016091F8017091F901C091FB018E
:1027B000D091FC0191E06F3F09F090E0292F06E0F5
:1027C000811709F443C0209721F07F3F21F030E0CA
:1027D00003C031E001C0322F90E030FD34C0089FCB
:1027E000F001099FF00D1124DF01A853BE4F11968F
:1027F0003C911197371327C03C91361324C0129691
:102800003C91129731111FC013964D915C91149712
:102810004C1B5D0B483C5105B0F48091FD018F705D
:1028200080618093FD01E353FE4F80818F70806152
:10283000808388EF91E00E94FE12DF91CF911F917B
:102840000F910C94901301968770BACFDF91CF91BE
:102850001F910F9108959F92AF92BF92CF92DF92F6
:10286000EF92FF920F931F93CF93DF93CDB7DEB715
:1028700061970FB6F894DEBF0FBECDBF8C0185E027
:10288000F801DE011D9601900D928A95E1F7F8019D
:1028900040815181E2809091F8016091F90120918D
:1028A000FB013091FC012115310531F06F3F31F40E
:1028B00081E09F3F19F403C081E001C080E0F82F60
:1028C000F1709F2E80FD46C1F801A380B48088EF8F
:1028D000C82E81E0D82EF090FA01F501E21BF30B2F
:1028E000FF2009F4DFC08091FD01E83CF10508F00C
:1028F0009BC0282F207F09F052C0561313C04913E4
:1029000011C0FE2CE1100EC08F7080618093FD011C
:102910000E94B113C6010E94FE128091FD01F801D0
:10292000858358C1AB2831F05F3F31F481E04F3FE0
:1029300019F403C081E001C080E080FD03C081E0A4
:102940008E2502C080E090E0F82FF170FF2E80FF0E
:102950001CC08091C6012091C70136E0821709F49E
:1029600017C190E0389FF001399FF00D1124E85312
:10297000FE4F6181561306C06081461303C0628119
:10298000E61203C001968770E9CFFE2CEE2009F411
:1029900021C18091FD0181608093FD015AC05613D1
:1029A00006C0491304C0E11002C0F8019FC04D8762
:1029B0005E878D859E850E946C13882379F1EE20B9
:1029C00069F12091FD01822F82958F7090E002972E
:1029D00074F08091F8019091F90198878F8319869E
:1029E000BB86AA862C87CE0107960E94FE1286E03F
:1029F000F801A8EFB1E001900D928A95E1F70E94ED
:102A0000BF130E94B1130DC0561729F14D875E8781
:102A10008D859E850E946C1381112CC0C8010E9477
:102A2000FE12FF24F394D6C0282F207F69F77A2D59
:102A3000B98AA88A6E2D89890E94711388EF91E066
:102A40000E94FE1286E0F60111928A95E9F70E9433
:102A5000B113F12CBFC04913D9CFE110D7CFF80182
:102A60008583C8010E94FE1286E0F60111928A95C4
:102A7000E9F7B0C0EE2091F22091FD01822F8295FE
:102A80008F7090E002970CF4B2CF8091F801909192
:102A9000F9019A8389831B82BD82AC822E83CE0189
:102AA0000196A3CFE83CF10508F047C0FE2CEE20CC
:102AB00009F4B4CF561330C049132EC02091FD0144
:102AC00020FD21C0822F82958F70482F50E0411544
:102AD0005105C9F0F80125834F30510541F08F5F52
:102AE000982F9295907F822F8F70892B8583C801B4
:102AF0000E94FE1286E0F801A8EFB1E001900D926D
:102B00008A95E1F742C086E0F801A8EFB1E00190B4
:102B10000D928A95E1F75EC04D875E878D859E8513
:102B20000E946C13811163CF8091FD0181608093BD
:102B3000FD01C8010E94FE124DC07A2DB98AA88AF3
:102B40006E2D89890E94711386E0F60111928A9593
:102B5000E9F71BC0EE2009F461CF4D875E878D85B4
:102B60009E850E946C13F82E882309F457CF86E0C7
:102B7000F801A8EFB1E001900D928A95E1F788EF96
:102B800091E00E942F100E94BF130E94B11322C037
:102B90004D875E878D859E850E945618292F229528
:102BA0002F70223028F49F7039F0811105C00BC0BE
:102BB000243028F49F7049F4805E883020F0C801EA
:102BC0000E94FE129F2CF92C05C0F8019581907F80
:102BD00099F7F9CF8F2D61960FB6F894DEBF0FBE2F
:102BE000CDBFDF91CF911F910F91FF90EF90DF90BC
:102BF000CF90BF90AF909F9008951F93CF93DF9396
:102C0000CDB7DEB72C970FB6F894DEBF0FBECDBFA1
:102C10004F83588769877A878B879C87CE01079671
:102C20000E942B148823D1F09F8188852A853B85BB
:102C3000232B31F08F3F31F481E09F3F19F403C023
:102C400081E001C080E080FD47C04F8158856985E3
:102C50007A858B859C850E9480133EC086E0FE01AC
:102C60003796DE01119601900D928A95E1F7FF816A
:102C7000E8856A857B856115710531F0EF3F31F498
:102C800081E0FF3F19F403C081E001C080E080FDD6
:102C900023C02091C70130E0C901019687709927B0
:102CA0004091C60150E084179507F1F1F983EA835A
:102CB0007D836C8396E0929FD001939FB00D112489
:102CC000A853BE4FFE01319601900D929A95E1F7FF
:102CD0008093C7010E94901316E08091C6019091E5
:102CE000C701891771F1189FC001112488539E4FA5
:102CF0000E942B14882329F1E091C6011E9FF00148
:102D00001124E853FE4F4081518162817381848197
:102D100095810E9480138091C60190E00196877092
:102D200099278093C601D9CF0E9444131092C701FE
:102D30001092C601E8EFF1E086E0DF011D928A956E
:102D4000E9F72C960FB6F894DEBF0FBECDBFDF912A
:102D5000CF911F910895089508950C94AC160C948A
:102D6000AD160E94AF16609307027093080280931D
:102D7000090290930A020C942E130C94B1160F932F
:102D80001F930091070210910802209109023091CF
:102D90000A02602B712B822B932B1F910F910C94A5
:102DA000B1160F931F930091070210910802209112
:102DB000090230910A0260237123822393231F9119
:102DC0000F910C94B1160F931F930091070210916D
:102DD00008022091090230910A0260277127822798
:102DE00093271F910F910C94B1160C94AC160E946E
:102DF000F51660930302709304028093050290938A
:102E000006020C942E1360E070E0CB010C94F716D0
:102E10000F931F9341E050E060E070E08A019B0156
:102E200004C0000F111F221F331F8A95D2F7C9015A
:102E3000B8011F910F910C94F7160F931F9341E067
:102E400050E060E070E004C0440F551F661F771F1C
:102E50008A95D2F78091030290910402A091050215
:102E6000B09106028A019B01082B192B2A2B3B2BC0
:102E7000C901B8011F910F910C94F7160F931F937E
:102E800041E050E060E070E004C0440F551F661F51
:102E9000771F8A95D2F740955095609570958091EF
:102EA000030290910402A0910502B09106028A01EA
:102EB0009B01082319232A233B23C901B8011F9131
:102EC0000F910C94F7160F931F9341E050E060E0D0
:102ED00070E004C0440F551F661F771F8A95D2F714
:102EE0008091030290910402A0910502B091060224
:102EF0008A019B01082719272A273B27C901B80106
:102F00001F910F910C94F7160F931F9300910302DA
:102F1000109104022091050230910602602B712B62
:102F2000822B932B1F910F910C94F7160F931F93E5
:102F300000910302109104022091050230910602D3
:102F400060237123822393231F910F910C94F71612
:102F50000F931F9300910302109104022091050228
:102F60003091060260277127822793271F910F91C6
:102F70000C94F716089524E0929F900D1124890F68
:102F8000E82FE695E695E695877051E001C0550F6C
:102F90008A95EAF785E0E89FF0011124E250FE4FA0
:102FA00020E030E070E04081CB01022E02C0969517
:102FB00087950A94E2F78170819584278523842779
:102FC00081932F5F3F4F2530310569F7089524E045
:102FD000929F900D1124890F682F669566956695CE
:102FE000982F977085E0689FB001112440E050E071
:102FF00080E0FB01E40FF51FE250FE4F208130E03E
:10300000092E02C0369527950A94E2F721703327DE
:10301000042E01C0220F0A94EAF7822B4F5F5F4F04
:103020004530510531F70895BF92CF92DF92EF926C
:10303000FF920F931F93CF93DF938C01C0900302F5
:10304000D0900402E0900502F09006028091070201
:1030500090910802A0910902B0910A02C82AD92AC7
:10306000EA2AFB2ACFE1D0E0D701C6010C2E04C02A
:10307000B695A795979587950A94D2F780FD04C0D9
:10308000219790F7B12C07C0BC2EB8018C2F0E945D
:10309000B6080197A9F38B2DDF91CF911F910F9166
:1030A000FF90EF90DF90CF90BF900895CF93DF9384
:1030B000EC010E941418BE010E94B608DF91CF9166
:1030C00008951F93CF93DF93EB019091C50199234E
:1030D00021F0CB010E94561813C0882349F0CB0180
:1030E0000E941418182F682FCE010E94BB1704C02D
:1030F000CB010E94E717182FBE01812F0E94B6084E
:10310000DF91CF911F91089580910B028595859550
:103110008595089580910B028770089590910B0218
:10312000977081E009F480E00895CF939091430374
:1031300092FB222720F92817E1F0C82F892FC0FB26
:1031400082F98093430380914203909143030E944C
:10315000A6198091180280FF0CC01F92CF9386ECB5
:1031600091E09F938F930E94C7020F900F900F9052
:103170000F90CF9108958091430382FB882780F9B7
:1031800091E089270C94951881E00C94951880E0C3
:103190000C94951880911702089590911702892B2D
:1031A0008093170208958095909117028923809348
:1031B0001702089510921702089590911602892B14
:1031C000809316020895809590911602892380932A
:1031D000160208951092160208951092150208958D
:1031E00080910C02089508950C94F3180C94F4182F
:1031F0009091430392FD08C090910C02981721F022
:1032000080930C020C94F618089580910C02882388
:1032100029F010920C0280E00C94F6180895E091C9
:103220000701F0910801809117028083E091070166
:10323000F0910801908180911602892B8083E091A2
:103240000701F0910801908180911502892B8083FC
:1032500080910C02882381F0E0910701F091080130
:103260009081892B808380910701909108010E94B1
:103270002E1A81110E940519809107019091080171
:103280000C94990E0C94F3189091430392FD10C086
:1032900098E0899F90011124262B20930B020E9415
:1032A0001D1780910B028595859585950C94421983
:1032B0000C941D1710920B0280E00C94421920917F
:1032C0000B028095822380930B02982F977041F414
:1032D00030E0482F082E000C550B2417350721F439
:1032E0009091430392FF07C08595859585950E942F
:1032F0003E170C945A1908956FEF7FEF80E090E02D
:103300000C94FC2380E090E00E94D82321E08A3EC8
:103310009E4F09F020E0822F089582E090E00C9407
:10332000CA2383E090E00C94CA23CF9384E090E01A
:103330000E94CA23C82F82E290E00E94CA232C2F49
:1033400030E0A901582BCA01CF910895CF93C92F1E
:10335000682F84E090E00E94DE236C2F82E290E0F0
:10336000CF910C94DE238FE090E00C94D223AB013C
:10337000BC018FE090E00C94F023AB01BC0183E131
:1033800090E00C94F02360E070E0CB010C94BD1948
:103390006AEE7EEF80E090E00E94FC2360E082E035
:1033A00090E00E94DE2360E083E090E00E94DE2354
:1033B00010920702109208021092090210920A025B
:1033C00060E084E090E00E94DE2360E082E290E032
:1033D0000E94DE2360E085E090E00E94DE2360E052
:1033E00086E090E00E94DE236FEF87E090E00E948D
:1033F000DE2340E050E0BA0188E090E00E94F02334
:1034000060E08DE090E00E94DE2340E050E0BA01F1
:1034100088E190E00E94F02360E087E190E00E9464
:10342000DE2340E050E0BA018CE190E00E94F023FE
:1034300060E070E080E290E00E94FC2340E050E019
:10344000BA0188E190E00E94F0230C948C070C9460
:10345000C819682F8EE090E00C94DE23FC013296B0
:1034600097E080E0915029F021912223D9F38F5FDA
:10347000F9CF0895662349F0FC0132960896219110
:10348000621729F0E817F907D1F780E0089581E085
:1034900008959C01FC0132969FEF80E04191461710
:1034A00089F09F3F19F4411101C0982F8F5F86303A
:1034B000A9F79F3F39F0F901E90FF11D97FDFA9542
:1034C0006283089508959C012A5F3F4FFC01428169
:1034D000461301C01282019682179307B9F7089527
:1034E0000C94491A0C94631A029626E0FC0111927E
:1034F0002A95E9F7089508950C947B1A0C947B1A89
:103500000E947E1A0E941D0B0E947C1A80E00E947D
:10351000BA0A91E0811101C090E0892F08950C94BE
:103520007B1A0C948F1A80914E03843049F10E94CB
:10353000911A80E00E949A081092190220E488E112
:1035400090E00FB6F894A895809360000FBE20938A
:10355000600083B7817F846083BF83B7816083BF4E
:103560007894889583B78E7F83BF0FB6F894A8951B
:1035700080916000886180936000109260000FBEAF
:1035800008950C947B1A0E9444130E948D0E0E9491
:103590009A080C94C11A1F920F920FB60F92112421
:1035A0008F939F93AF93BF9380911902811113C0A2
:1035B0008091460390914703A0914803B09149033D
:1035C0004196A11DB11D8093460390934703A0939C
:1035D0004803B0934903BF91AF919F918F910F9092
:1035E0000FBE0F901F90189582E084BD93E095BDAB
:1035F0009AEF97BD80936E0008952FB7F89480914D
:10360000460390914703A0914803B09149032FBF0F
:1036100008952FB7F8946091460370914703809105
:103620004803909149032FBF08959C014FB7F89428
:103630008091460390914703A0914803B0914903BC
:103640004FBF821B930B089578941F920F920FB671
:103650000F9211248F939F93AF93BF938091460352
:1036600090914703A0914803B09149030196A11D91
:10367000B11D8093460390934703A0934803B093F2
:103680004903BF91AF919F918F910F900FBE0F9003
:103690001F90189581E08093E00080E28093D8002D
:1036A0001092C9008FE19EE40197F1F700C000007D
:1036B00087E090EBDC018093570390935803A0932D
:1036C0005903B0935A039CE088E10FB6F894A8958B
:1036D000809360000FBE90936000FFCF90939D0198
:1036E00080939C010895809125020895CF93DF93E4
:1036F00000D01F92CDB7DEB790914E03943019F5EC
:1037000089837B836A8383E08093E9008FEF9091C4
:10371000E800815095FD06C095ED9A95F1F70000FF
:103720008111F5CF8091E80085FF0DC040E050E0A9
:1037300063E070E0CE0101960E94571E8091E80080
:103740008E778093E8000F900F900F90DF91CF91CC
:103750000895BC0184E00C94761BBC0183E00C94BA
:10376000761B22E02093E9002FEF3091E8002150F2
:1037700035FD06C035ED3A95F1F700002111F5CF82
:103780002091E80025FF0BC040E050E065E070E0CC
:103790000E94571E8091E8008E778093E80008957C
:1037A000CF93DF9321E02093E9002FEF3091E800E1
:1037B000215035FD06C035ED3A95F1F70000211195
:1037C000F5CF2091E80025FF14C0EC0140E050E067
:1037D00068E070E00E94571E8091E8008E77809329
:1037E000E80088E0FE01ADE1B2E001900D928A951B
:1037F000E1F7DF91CF91089580E092E00E942E02E0
:1038000080914D03811109C00E94E81F0E9445204C
:103810008091E20084608093E20008958CEF91E053
:103820000E942E0210924D03089588EF91E00C94AF
:103830002E0284EF91E00C942E0280EF91E00C9424
:103840002E0220911B022F5F822F62E30E949023A1
:10385000992319F020931B02089510921B02809166
:103860001C02882371F180914E03843041F58091D0
:10387000E9008F702091EC00922F917020FD90E86C
:10388000892B94E09093E9009091EB0090FF14C095
:103890009091EE0097FF10C09091E80095FF03C053
:1038A0001092F100F9CF9091E80090FF05C090913F
:1038B000E8009E779093E8008F708093E900109263
:1038C0001C02089542E061EC81E00E94611F42E029
:1038D00061EC82E00E94611F42E261EC83E00E94A1
:1038E000611F42E261EC84E00C94611F80915003FF
:1038F000833009F462C030F4813071F0823009F411
:103900009BC008958A3009F487C08B3009F46DC0DC
:10391000893009F0A9C020C080914F03813A09F095
:10392000A3C08091E800877F8093E80080915303D3
:1039300090915403892B21F468E08DE192E003C05B
:1039400060E080E090E070E00E94A21E8091E800BC
:103950008B778093E800089580914F03813209F0BE
:1039600083C08091530390915403009719F00297FC
:1039700009F07AC08091E800877F8093E800809109
:10398000E80082FD05C080914E038111F8CF6CC024
:103990002091F3008091F20090E0922B029729F49D
:1039A0008091F1008B7F813021F48091F100809330
:1039B00025028091E8008B7753C080914F03813AB4
:1039C00009F052C08091530390915403892B09F060
:1039D0004BC08091E800877F8093E8008091E800E9
:1039E00080FFFCCF8091130136C080914F0381325C
:1039F000D9F58091530390915403892BA9F58091B7
:103A0000E800877F8093E8000E94961F8091510311
:103A1000809313010C94441380914F03813221F55C
:103A20008091E800877F8093E8000E94961F809134
:103A3000520380932602089580914F03813AA1F4A6
:103A40008091E800877F8093E8008091E80080FF04
:103A5000FCCF809126028093F1008091E8008E7760
:103A60008093E8000C94961F08959FB7F8941092E5
:103A70001C029FBF90914E03943009F057C0909163
:103A8000E9009F703091EC00232F217030FD20E879
:103A9000922B24E02093E9002091EB0020FF43C00B
:103AA0002091EE0027FF3FC020911A02222321F02F
:103AB0002091E80025FF37C010921A0226E03091CD
:103AC000E80035FD15C030914E03343061F530917A
:103AD000EB0035FD28C0215021F481E080931A02CB
:103AE00022C0EFE9FFE03197F1F700C00000E7CF17
:103AF0008093F1008091E80085FD0AC08091E80084
:103B000080FFFCCF8091E8008E778093E80006C0AC
:103B10008FB7F89421E020931C028FBF9F70909381
:103B2000E90080E008959F709093E9008FEF089579
:103B300084B7877F84BF0FB6F894A8958091600002
:103B4000886180936000109260000FBE90E080E872
:103B50000FB6F89480936100909361000FBE0E94AD
:103B60003E0F0E94E81F0E9445208091E200846081
:103B70008093E20078940E94D9220E944C0F89E041
:103B800091E00E94880E8FED91E00E942E028091BC
:103B90004E038530C9F48BED91E00E942E02809196
:103BA0004E03853079F40E94931A80914C03882348
:103BB000B1F30E94801A882391F30E94411E0E9453
:103BC0004413EDCF0E94C31A0E947C0F0E94480F3D
:103BD000DECF0C94EB1D292F332723303105C9F09C
:103BE00060F42130310581F02230310509F041C007
:103BF00084E790E020E532E040C021323105E1F079
:103C00002232310531F135C082E190E024EC32E01E
:103C100034C099278130910549F028F0029749F581
:103C2000E4E0F2E005C0ECE4F2E002C0E4E2F2E03D
:103C3000849190E09F0121C064307105D0F4660F3B
:103C4000771FFB01ED56FE4F2081318189E090E026
:103C500014C06430710568F4FB01EE0FFF1FE557D7
:103C6000FE4F20813181FB01E957FE4F808190E0BA
:103C700004C080E090E020E030E0FA01318320834E
:103C8000089580E189BD82E189BD09B400FEFDCFC0
:103C90008091D8008F7D8093D8008091E000826071
:103CA0008093E0008091E00081FDFCCF0895CF92E9
:103CB000DF92EF92FF920F931F93CF93DF93EC016C
:103CC0008B017A010E94B51F811133C0E114F10408
:103CD00039F0F70180819181081B190BC80FD91F9A
:103CE000C12CD12C0115110519F18091E80085FD39
:103CF00016C08091E8008E778093E800E114F1040B
:103D000049F0F70180819181C80ED91ED182C0820D
:103D100085E00FC00E94B51F882321F30AC0899156
:103D20008093F10001501109FFEFCF1ADF0ADACFBB
:103D300080E0DF91CF911F910F91FF90EF90DF9086
:103D4000CF900895209155033091560326173707D9
:103D500048F06115710539F42091E8002E77209321
:103D6000E80001C0B901FC0120E06115710579F19D
:103D700080914E038823F1F18530F1F18091E800C4
:103D800083FD3CC08091E80082FD2EC08091E80058
:103D900080FFEBCF2091F3008091F20090E0922B16
:103DA0006115710551F08830910538F42191209307
:103DB000F100615071090196F3CF21E0089709F0F5
:103DC00020E08091E8008E778093E800CECF21112B
:103DD000CFCF0AC080914E03882361F0853061F017
:103DE0008091E80083FD0AC08091E80082FFF2CF55
:103DF00080E0089582E0089583E0089581E00895C9
:103E000020915503309156032617370748F0611566
:103E1000710539F42091E8002E772093E80001C065
:103E2000B901FC0120E06115710591F180914E030B
:103E3000882309F440C0853009F43FC08091E80030
:103E400083FD3DC08091E80082FD2FC08091E80095
:103E500080FFE9CF2091F3008091F20090E0922B57
:103E60006115710559F08830910540F42491209333
:103E7000F1003196615071090196F2CF21E0089767
:103E800009F020E08091E8008E778093E800CBCFA6
:103E90002111CCCF0AC080914E03882361F0853078
:103EA00061F08091E80083FD0AC08091E80082FF04
:103EB000F2CF80E0089582E0089583E0089581E0E4
:103EC0000895982F973068F59093E900981739F086
:103ED0007091EC002091ED005091F00003C0242F70
:103EE000762F50E021FD02C09F5FECCF3091EB00B8
:103EF0003E7F3093EB003091ED003D7F3093ED003D
:103F00003091EB0031603093EB007093EC00209324
:103F1000ED005093F0002091EE0027FDE5CF80E00A
:103F200008958F708093E90081E0089580914F0398
:103F300087FF11C08091E80082FD05C080914E038B
:103F40008111F8CF11C08091E8008B770BC0809170
:103F50004E03882349F08091E80080FFF8CF8091DC
:103F6000E8008E778093E80008952091E400309176
:103F7000E50095E64091EC00842F817040FF23C05E
:103F80008091E80080FD1DC080914E03882399F048
:103F9000853099F08091EB0085FD11C04091E400DF
:103FA0005091E5002417350729F3915011F09A013B
:103FB000E1CF84E0089582E0089583E0089581E0F0
:103FC000089580E008954091E80042FFDDCF089514
:103FD0000E9456200E945E20E0EEF0E08081816029
:103FE0008083E8EDF0E080818F77808319BCA7EDB6
:103FF000B0E08C918E7F8C9380818F7E8083109235
:104000004D0308950F931F93CF93DF930E94562083
:104010000E945E20C8EDD0E088818F7788838881F8
:104020008068888388818F7D888319BC10924E03B5
:1040300010924A0310924C0310924B0300EE10E0D2
:10404000F80180818B7F808388818160888342E052
:1040500060E080E00E94611FE1EEF0E080818E7FF1
:104060008083E2EEF0E080818160808380818860DF
:104070008083F80180818E7F80838881806188833E
:10408000DF91CF911F910F910895E8EDF0E08081CD
:104090008F7E8083E7EDF0E080818160808384E023
:1040A00082BF81E080934D030C940220E8EDF0E0A4
:1040B00080818E7F80831092E20008951092DA0052
:1040C0001092E10008951F920F920FB60F921124E3
:1040D0002F933F934F935F936F937F938F939F9310
:1040E000AF93BF93EF93FF938091E10082FF0BC0EA
:1040F0008091E20082FF07C08091E1008B7F809376
:10410000E1000E94211C8091DA0080FF1FC0809195
:10411000D80080FF1BC08091DA008E7F8093DA0088
:104120008091D90080FF0DC080E189BD82E189BD09
:1041300009B400FEFDCF81E080934E030E94FC1B7A
:1041400005C019BC10924E030E940E1C8091E10024
:1041500080FF19C08091E20080FF15C08091E200CD
:104160008E7F8093E2008091E20080618093E20084
:104170008091D80080628093D80019BC85E080933C
:104180004E030E94191C8091E10084FF30C0809191
:10419000E20084FF2CC080E189BD82E189BD09B4C1
:1041A00000FEFDCF8091D8008F7D8093D800809154
:1041B000E1008F7E8093E1008091E2008F7E80930A
:1041C000E2008091E20081608093E20080914A03E6
:1041D000882311F084E007C08091E30087FD02C0CE
:1041E00081E001C083E080934E030E941D1C8091FA
:1041F000E10083FF29C08091E20083FF25C0809108
:10420000E100877F8093E10082E080934E0310926B
:104210004A038091E1008E7F8093E1008091E2006B
:104220008E7F8093E2008091E20080618093E200C3
:1042300042E060E080E00E94611F8091F0008860B1
:104240008093F0000E94151CFF91EF91BF91AF91F8
:104250009F918F917F916F915F914F913F912F919E
:104260000F900FBE0F901F9018951F920F920FB6D0
:104270000F9211242F933F934F935F936F937F93EC
:104280008F939F93AF93BF93CF93DF93EF93FF935E
:10429000C091E900CF708091EC00D82FD17080FDE3
:1042A000D0E81092E9008091F000877F8093F000C1
:1042B00078940E9479211092E9008091F000886042
:1042C0008093F000CD2BCF70C093E900FF91EF9168
:1042D000DF91CF91BF91AF919F918F917F916F911E
:1042E0005F914F913F912F910F900FBE0F901F90B4
:1042F00018951F93CF93DF93CDB7DEB7AA970FB66C
:10430000F894DEBF0FBECDBFEFE4F3E08091F10083
:10431000819323E0E735F207C9F70E94761C80916C
:10432000E80083FF2EC180914F0390915003492FE5
:1043300050E04A30510508F024C1FA01E059FF4F1E
:104340000C94C423803821F0823809F01AC108C0C7
:1043500080914B0390914C03992389F082600FC0A8
:10436000809153038F70873008F00BC18093E90070
:104370008091EB0085FB882780F91092E9009091ED
:10438000E800977F9093E8008093F1001092F1008D
:10439000D1C0282F2D7F09F0F4C0882319F0823076
:1043A00061F0EFC080915103813009F0EAC0933091
:1043B00009F080E080934C032EC08091510381115D
:1043C0002AC0809153038F702FEF280F263008F0FA
:1043D000D8C08093E9002091EB0020FF1CC09330EF
:1043E00021F48091EB00806214C09091EB00906109
:1043F0009093EB0021E030E0A90102C0440F551F6B
:104400008A95E2F74093EA001092EA008091EB006F
:1044100088608093EB001092E9008091E800877F2C
:104420008093E8000E94961FACC08111AAC0109131
:1044300051031F778091E3008078812B8093E30004
:104440008091E800877F8093E8000E94961F80910A
:10445000E80080FFFCCF8091E30080688093E30058
:10446000111102C082E001C083E080934E0389C035
:104470008058823008F085C080915103909152039A
:104480008C3D53E0950779F583E08A838AE289833E
:104490004FB7F894DE01139620E03EE051E2E32F9F
:1044A000F0E050935700E49120FF03C0E295EF70D5
:1044B0003F5FEF708E2F90E0EA3010F0C79601C09A
:1044C000C0968D939D932F5F243149F74FBF809104
:1044D000E800877F8093E8006AE270E0CE010196F1
:1044E0000E94A21E16C06091530370915403AE0146
:1044F0004F5F5F4F0E94E91DBC01892B09F441C049
:104500009091E800977F9093E80089819A810E94BA
:10451000001F8091E8008B778093E80032C08038DC
:1045200081F58091E800877F8093E80080914A03BD
:104530008093F1008091E8008E7772CF811121C0C5
:10454000809151039091520399270297D4F480915E
:10455000E800877F8093E8008091510380934A03AD
:104560000E94961F80914A03811106C08091E3004A
:1045700087FD02C081E001C084E080934E030E9469
:10458000621C8091E80083FF0AC08091E800877F69
:104590008093E8008091EB0080628093EB00AA9604
:1045A0000FB6F894DEBF0FBECDBFDF91CF911F9144
:1045B0000895CF9380914E038823A1F0C091E90024
:1045C000CF709091EC00892F817090FD80E8C82B0E
:1045D0001092E9008091E80083FD0E947921CF705C
:1045E000C093E900CF9108950E94FB226894B11115
:1045F0000C948A2308950E946F2388F09F5798F0A7
:10460000B92F9927B751B0F0E1F0660F771F881FD7
:10461000991F1AF0BA95C9F714C0B13091F00E94F1
:104620008923B1E008950C948923672F782F882778
:10463000B85F39F0B93FCCF3869577956795B39518
:10464000D9F73EF490958095709561957F4F8F4F87
:104650009F4F0895E89409C097FB3EF4909580958C
:10466000709561957F4F8F4F9F4F9923A9F0F92F38
:1046700096E9BB279395F695879577956795B795B6
:10468000F111F8CFFAF4BB0F11F460FF1BC06F5F9C
:104690007F4F8F4F9F4F16C0882311F096E911C0AE
:1046A000772321F09EE8872F762F05C0662371F0CF
:1046B00096E8862F70E060E02AF09A95660F771FE3
:1046C000881FDAF7880F9695879597F9089557FD13
:1046D0009058440F551F59F05F3F71F04795880F70
:1046E00097FB991F61F09F3F79F087950895121607
:1046F00013061406551FF2CF4695F1DF08C01616B3
:1047000017061806991FF1CF869571056105089463
:104710000895E894BB2766277727CB0197F908957A
:10472000991B79E004C0991F961708F0961B881F03
:104730007A95C9F780950895AA1BBB1B51E107C064
:10474000AA1FBB1FA617B70710F0A61BB70B881F21
:10475000991F5A95A9F780959095BC01CD010895B0
:1047600097FB072E16F4009407D077FD09D00E941E
:104770009C2307FC05D03EF4909581959F4F0895AA
:10478000709561957F4F0895EE0FFF1F0590F4918E
:10479000E02D0994F999FECF92BD81BDF89A992731
:1047A00080B50895A6E1B0E044E050E00C94042404
:1047B000A8E1B0E042E050E00C940424262FF999DF
:1047C000FECF92BD81BDF89A019700B4021639F070
:1047D0001FBA20BD0FB6F894FA9AF99A0FBE089541
:1047E0000396272F0E94DF230E94DE23252F0E949D
:1047F000DF23242F0C94DF230196272F0E94DF2331
:104800000C94DE23DC01CB01FC01F999FECF06C03C
:10481000F2BDE1BDF89A319600B40D92415050407E
:08482000B8F70895F894FFCFEA
:10482800130016001B00400D02731BD01BB11BADFB
:104838001BA91B0135679091939596F1F3F5F6F74F
:10484800E200E900EA00B500B600B700CD00830138
:10485800CC008A019201940121022302240225023C
:10486800260227022A02B300B4006F00700081827A
:10487800839492C63697E200E900EA00B500B600D4
:10488800B700CD008301CC008A0192019401210276
:10489800230224022502260227022A02B300B400BA
:1048A8006F0070008182834047322271032A03F827
:0C48B80002D60262027B029402AD0200F4
:00000001FF
