:100000000C9497010C94CF010C94CF010C94CF0168
:100010000C94CF010C94CF010C94CF010C94CF0120
:100020000C94CF010C94CF010C9461270C943528CB
:100030000C948E210C94CF010C94CF010C94CF0121
:100040000C94CF010C94CF010C94CF010C94CF01F0
:100050000C94CF010C9415220C94CF010C94CF0179
:100060000C94CF010C94CF010C94CF010C94CF01D0
:100070000C94CF010C94CF010C94CF010C94CF01C0
:100080000C94CF010C94CF010C94CF010C94CF01B0
:100090000C94CF010C94CF010C94CF010C94CF01A0
:1000A0000C94CF010C94CF010C94CF01D100D3005C
:1000B000D200D400D50001000100010001000100C0
:1000C0000100010001000100010001000100010028
:1000D0000100010001000100010001000100010018
:1000E0000100010001000100010001000100010008
:1000F00001000100010001000100010000000000FA
:10010000000000002A2B2800000000000000000072
:100110000000000000000029000000002C1E342018
:10012000212224342627252E362D3738271E1F203E
:100130002122232425263333362E37381F04050683
:100140000708090A0B0C0D0E0F10111213141516C7
:100150001718191A1B1C1D2F3130232D35040506C5
:100160000708090A0B0C0D0E0F10111213141516A7
:100170001718191A1B1C1D2F3130354C00000000B8
:10018000000000000000000000000000000000006F
:10019000000000000000000000000000000000005F
:1001A0007E0F00D4FFFFFFC7000000781E034D0044
:1001B00069006E0069002000540072006100630055
:1001C0006B00620061006C006C0000000E035000C8
:1001D0006C006F006F0070007900000004030904D8
:1001E00009025B00030100A03209040000010301C1
:1001F00001000921110100012244000705810308C3
:10020000000109040100020300000009211101009E
:1002100001222200070582032000010705030320B5
:10022000000109040200010300000009211101007E
:1002300001227B0007058403200001120100020057
:100240000000084350AB1E0100010200010660FFE0
:100250000961A1010962150026FF0095207508813A
:10026000020963150026FF00952075089102C0055C
:10027000010902A10185020901A10005091901294D
:10028000081500250195087501810205010930094D
:10029000311581257F95027508810609381581255C
:1002A0007F950175088106050C0A38021581257FA6
:1002B000950175088106C0C005010980A10185036B
:1002C00019012AB700150126B700950175108100A4
:1002D000C0050C0901A101850419012AA00215011C
:1002E00026A002950175108100C005010906A10133
:1002F000050719E029E71500250195087501810218
:100300009501750881010507190029FF150026FFD1
:1003100000950675088100050819012905150025B5
:1003200001950575019102950175039101C0112494
:100330001FBECFEFDAE0DEBFCDBF04B603FE18C0AC
:100340008091B3039091B403A091B503B091B6032B
:100350008730904BA740B04B59F41092B3031092E2
:10036000B4031092B5031092B603E0E0F8E30995E8
:1003700011E0A0E0B1E0E0E5F9E502C005900D92E2
:10038000A43CB107D9F723E0A4ECB1E001C01D9271
:10039000A33BB207E1F70E94B1140C94542C0C94C7
:1003A000000010924B031092C302109207038FEFCC
:1003B00093E0909309038093080310924E031092E8
:1003C0004D0310920A031092920310929903109217
:1003D000980310929603109295031092C402109203
:1003E00006039093940380939303109284021092D7
:1003F000830210924F031092C50210925303109281
:10040000520310920C0310920B0310924C031092A3
:10041000970310925103109250031092C70210924A
:10042000C6020895FC01208131812E3131052CF462
:100430002F5F3F4F3183208308951182108281E026
:10044000FB0180830895A2E0B0E0E9E2F2E00C94C1
:10045000AF2BFC013B012A013A832983DB018D91FB
:100460009C911197E817F90714F4ED93FC93D201CE
:100470008D919C9111978E179F0714F4ED93FC9327
:10048000D2012D903C90D3012D913C91C101821B52
:10049000930B8A309105B4F163E070E00E948E2BDB
:1004A000620F731FE617F7070CF06FC0F801808129
:1004B000882309F465C0D401ED91FC91EE0FFF1F74
:1004C000EC0DFD1D31822082698D7A8DC4010E9460
:1004D0001202F30120813181D2018D919C91821B06
:1004E000930B97FD019695958795820F931FF301C6
:1004F00091838083D2018D939C93E981FA8110824C
:10050000D8011C92A98DBA8D8C91882309F456C00C
:10051000F6019601225C3F4F90E080E041915191BD
:10052000840F951F2E173F07C9F76FE170E00E94F7
:100530008E2B9B01EF89F88D8081882309F458C0A8
:10054000F701A701425C5F4F90E080E061917191FB
:10055000860F971F4E175F07C9F76FE170E00E9483
:100560008E2BFB01C9018E1B9F0B63E070E00E9484
:100570008E2BCB018E0F9F1F2296E2E10C94CB2B8A
:1005800081E0E981FA818083BDCF6E177F070CF08F
:10059000B9CFA981BA818C91882369F0D501ED91F9
:1005A000FC91EE0FFF1FEE0DFF1D318320836F893D
:1005B000788DC5018CCF81E0F801E5CFF401608131
:1005C00071816115710581F0F60130E020E090E065
:1005D00080E0261737070CF0AACF41915191840F84
:1005E000951F2F5F3F4FF5CFD2012D913C91A2CFA8
:1005F000D5016D917C916115710581F0F70150E095
:1006000040E090E080E0461757070CF0A8CFA1919A
:10061000B1918A0F9B1F4F5F5F4FF5CFD301ED91D3
:10062000FC91A0CF8F929F92AF92BF92CF92DF9218
:10063000EF92FF920F931F9326E033E03F932F93A7
:1006400024EC32E03F932F9325E9822E23E0922E73
:1006500038E9A32E33E0B32E4DE0C42E43E0D42E70
:1006600054E5E52E53E0F52E02E913E02AE033E0ED
:100670004DE453E068E073E00E942302909351033D
:10068000809350030F900F900F900F901F910F9138
:10069000FF90EF90DF90CF90BF90AF909F908F90A2
:1006A00008958F929F92AF92BF92CF92DF92EF9276
:1006B000FF920F931F9327E933E03F932F932CE48E
:1006C00033E03F932F932BE0822E23E0922E32E5EE
:1006D000A32E33E0B32E48ECC42E42E0D42E55E8CE
:1006E000E52E52E0F52E05EC12E02FE433E043E86E
:1006F00052E063E973E00E9423029093C702809363
:10070000C6020F900F900F900F901F910F91FF90C6
:10071000EF90DF90CF90BF90AF909F908F90089513
:100720000F931F93CF93DF938C01EB018091C40251
:10073000882321F080910603811103C0C8010E9423
:10074000120380914C03882321F08091970381113B
:1007500003C0CE010E9451034091500350915103B8
:100760008091C6029091C70220914B03211125C0B0
:1007700004171507A0F4C817D90710F480E00AC0C1
:1007800083E080934B03809107038823B9F3109291
:10079000070381E0DF91CF911F910F910895C81752
:1007A000D90760F781E080934B038091C3028823CF
:1007B00029F31092C3028FEFEDCF2130A1F404177B
:1007C000150750F0C817D907C8F210924B032093B1
:1007D00007031092C302D2CFC817D90778F682E078
:1007E00080934B03F4CF223001F50417150770F006
:1007F000C817D90718F681E080934B038091C30294
:10080000882309F4BBCF1092C302C3CFC817D907FE
:1008100008F4B4CF83E080934B03809107038823CF
:1008200009F4ACCF10920703C6CF0417150760F088
:10083000C817D90708F4A2CF10924B0381E0809328
:10084000C302109207039ACFC817D90708F096CFB2
:1008500082E080934B03F2CFCF93DF93D62F0E9499
:100860001E17C82F882329F08AEDD11189ED0E9427
:100870004D088C2FDF91CF91089530910101E32F26
:10088000E295EF70F0E041A13F7081E090E0BC01A3
:1008900002C0660F771F3A95E2F79B01209524234B
:1008A00021A330910101E32FE295EF70F0E042A126
:1008B0003F70BC0102C0660F771F3A95E2F79B01BB
:1008C0002095242322A330910001E32FE295EF70BD
:1008D000F0E041A13F70BC0102C0660F771F3A955E
:1008E000E2F79B012095242321A320910001E22F10
:1008F000E295EF70F0E032A12F7001C0880F2A95C9
:10090000EAF78095832382A30E94D1010895CF93B3
:10091000DF93809101010E94BE22EC0180910001D1
:100920000E94BE22BC01CE010E949003C82F80917C
:10093000C6019091C7010E94062284369105D8F025
:100940008091C8019091C9010E940622059798F0F4
:100950008091D30181110FC0CC2369F061E01C1696
:100960000CF060E080E00E9410170E94EE2190934E
:10097000C9018093C801DF91CF9108958091D20180
:1009800091E089278093D2010895CF93DF93CAE93C
:10099000D3E0888190E0019665E070E00E947A2BB8
:1009A000888360919A0370919B0380919C0390913E
:1009B0009D030E943210E881F0E0EE0FFF1FEE5F12
:1009C000FE4F808191810E94B915DF91CF910895EA
:1009D000ACE0B0E0EEEEF4E00C94B52B4F8358871A
:1009E0008B879C87172F8091D201882309F46AC0D6
:1009F000062E000C770B880B990B0E94812A20E0B1
:100A000030E040E05EE30E940D2B2091CE0130915A
:100A1000CF014091D0015091D1010E94DD294B01BD
:100A20005C01612F110F770B880B990B0E94812AB3
:100A300020E030E040E05EE30E940D2B2091CA01EF
:100A40003091CB014091CC015091CD010E94DD2924
:100A50006B017C01C501B4010E94492A062F6C87F5
:100A6000C701B6010E94492A162F6B87602F000F1D
:100A7000770B880B990B0E94812A9B01AC01C50161
:100A8000B4010E94DC296093CE017093CF01809362
:100A9000D0019093D101612F110F770B880B990B27
:100AA0000E94812A9B01AC01C701B6010E94DC298A
:100AB0006093CA017093CB018093CC019093CD01D8
:100AC00010E060E04F815885712F8B859C850E94D6
:100AD000CE1480E090E02C96ECE00C94D12B0F9398
:100AE0001F93CF93DF938C01EB018881813061F4F8
:100AF0008981811109C00E94EE219093C7018093E2
:100B0000C6018D818093D301BE01C8010E942506D4
:100B1000882351F001159EE7190759F4CD81CC23A4
:100B200019F00E94C5048C2FDF91CF911F910F9176
:100B3000089501301E47C1F7CD81CC23A9F30E944F
:100B4000BE04F1CFACE0B0E0E8EAF5E00C94BD2BD8
:100B50008CE0EAE2F1E0DE01119601900D928A95B7
:100B6000E1F7FE013196AE01435F5F4F61E070E057
:100B70008191A82FA295AF70B0E091962C9191979A
:100B80008F708B0102C0000F111F8A95E2F7C80118
:100B9000922F982B91969C93919792969C919297D5
:100BA0008095892392968C934E175F0709F70E94D0
:100BB0000A112C96E4E00C94D92B81E080939A03DF
:100BC00060919A0370919B0380919C0390919D0387
:100BD0000E9432100E94401008950E942D106093D0
:100BE0009A0370939B0380939C0390939D036630BC
:100BF00010F00E94DD05E0919A03F0E0EE0FFF1F78
:100C0000EE5FFE4F808191810E94B9150895883072
:100C100090F4611110C0453070F4E42FF0E095E0DD
:100C2000899FE00DF11D1124EE0FFF1FE455FF4FCA
:100C300085919491089581E090E0089581E0089570
:100C40000E941E06089581E008950E941E060895E0
:100C500008950E9428060895A6E0B0E0E2E3F6E0D9
:100C60000C94BE2B49835A839E833091D90189818C
:100C70009A8131111AC03E81332399F0222389F0E1
:100C80000E94BE0B182F682F89819A810E94A30BA6
:100C900069817A81812F0E94D1122696E3E00C941B
:100CA000DA2B0E94B00B182FF3CF0E94BE0B698184
:100CB0007A81F1CFFC01262F4081518162817381BD
:100CC000848195810E942C060895CF93DF93EC01D7
:100CD00061E00E945A06BE010E942006DF91CF917A
:100CE0000895CF93DF93EC0160E00E945A06BE01A5
:100CF0000E942906DF91CF91089591E001C0990FDC
:100D00008A95EAF7892F0E94EA0A0895CF93C82F9F
:100D100081E00C2E01C0880F0A94EAF70E941C1093
:100D20008C2F0E947D06CF91089581E008950E9446
:100D300095060895CF93C82F0E949F0A8C2F0E947A
:100D400097062FEF84E39CE0215080409040E1F72C
:100D500000C00000CF91089581E00E949A060E9491
:100D60003922089580E00E949A060E945D2208952B
:100D70000F931F93CF93DF938C0161E00E945A067B
:100D8000EC01B8010E94121F811106C080E0DF91C2
:100D9000CF911F910F910895B801CE010E946F0568
:100DA0008823A1F3B801CE010E941F1E882371F38E
:100DB000B801CE010E943119882341F3B801CE0158
:100DC0000E940719882311F3B801CE010E94631E07
:100DD0008823E1F2B801CE010E94D5138823B1F235
:100DE000F8018581882361F0C330FCE7DF07E9F073
:100DF00058F4C115ECE7DE07A9F0C130DC47B9F0C3
:100E0000C8010E942306C3CFCB358CE7D807A9F0D1
:100E1000CC35ECE7DE0771F0CA35DC4789F70E9474
:100E2000F70FEECF0E94AC06B1CF0E94FF0F0E94D9
:100E3000B206ACCF0E94ED0FE3CF0E94FB0FE0CFD4
:100E40000E9470210E9442070E94541508950E943A
:100E500046070E947521089581E008950895CF9373
:100E6000DF93D82F0E942C07C82F882319F08D2FCD
:100E70000E942E078C2FDF91CF91089508950E9434
:100E80002F07089580E00E943F0708950E94FA1FEF
:100E90000E943F070895CF930E94FA1FC82F8091A8
:100EA000D4018C1779F0C093D4010E94FA21609389
:100EB000D5017093D6018093D7019093D8018C2FE0
:100EC0000E943F07CF910895ADE0B0E0EAE6F7E079
:100ED0000C94BF2B488759876A877B878C879D87AF
:100EE00091110E942D0F1F8286E0FE013896DE01CF
:100EF000119601900D928A95E1F78D8181110DC0B7
:100F000029813A814B815C816D817E818F810E9434
:100F1000770E2D96E2E00C94DB2BCE0101960E9419
:100F200065068111EDCFF5CFFC012481213021F43C
:100F3000808191810E94EB0B0895CF93DF93C82F9E
:100F4000D62F662381F00E94921A8C2F90E09C018C
:100F5000215D31092830310548F46D2F0E94C215FA
:100F6000DF91CF9108950E94EC1AEFCF0E94651B8C
:100F7000F7CFCF93C82F882399F08CEF8C0F813A4D
:100F800088F48C2F0E947F20882329F08C2F0E94C8
:100F9000C2200E949C0F8C2F0E94BA200E949C0F9E
:100FA000CF91089580E28C0F883048F4C77081E0BB
:100FB00001C0880FCA95EAF70E94100FEFCFEBE54A
:100FC000EC0FE33040F4F0E0E459FE4F808190E014
:100FD0000E942020E5CFE8E5EC0FEB3150F4F0E083
:100FE000EE0FFF1FEA5CFE4F808191810E94452039
:100FF000D7CF83E38C0F833198F661E08C2F0E946A
:101000009D07CECF882381F19CEF980F913A28F469
:101010000E94C2200E949C0F089590E2980F983081
:1010200050F4877091E001C0990F8A95EAF7892FF3
:101030000E94160FEFCF9BE5980F933028F490E0B5
:1010400080E00E942020089598E5980F9B3128F4B5
:1010500090E080E00E944520089593E3980F93313B
:1010600018F460E00E949D0708951F93CF93DF93CB
:10107000182FEB010E94B907209739F4812F0E94A5
:101080000208DF91CF911F9108958FE99FE00197AA
:10109000F1F700C000002197EFCF70E060E08933E6
:1010A00011F460E570E00E9435080895882321F06E
:1010B0000E94100F0E949C0F0895882321F00E9427
:1010C000160F0E949C0F0895B0E0A0E0EAE6F8E059
:1010D0000C94B82B6C01D62FC72FFC01158106810B
:1010E00002950F700E94060FE82E8823F9F0E12E7A
:1010F0001123E1F08C2F807F803461F080E28D0F2E
:10110000883008F18C2F807E803221F4D230D8F0E4
:101110000023C9F080919F0382FF15C082E00E94E6
:10112000C10F0E94060F91E0E82EE926BC2EB29472
:101130009FE0B922FBE0FB15B8F1EB2DF0E0EA5A95
:10114000F34D0C94A22BE12CF1CF0C2F0F70C07F2C
:1011500011F00295007F112399F0002359F080E2ED
:101160008D0F883010F0D11107C0802F0E94100F12
:101170000E949C0F8D2F5AC0802F0E94200FF8CF05
:101180008D2F0E940208002379F080E28D0F8830B5
:1011900010F0D11104C0802F0E94160F03C0802FC1
:1011A0000E94260F0E949C0FEB2DE850FF0B3497F6
:1011B00020F40E94FA1F0E943F07EE2089F00E944F
:1011C000020F80FD0DC0F60115820E94FC0E0E94E8
:1011D000170BC6010E94660A0E94FC0E0E94230B98
:1011E000CDB7DEB7E9E00C94D42B2C2F2F70F22E64
:1011F000C07FC03219F0F29480EFF822DD2341F075
:10120000D130D1F1112309F444C00023F1F0B2CF61
:1012100080919F0382FD15C0112359F0FF2029F012
:101220008F2D0E94100F0E949C0F80E00E94B90732
:10123000BBCF80E00E940208FF2009F4B5CF8F2DBC
:10124000ABCF112369F0011104C08F2D0E94560805
:10125000ABCF013009F0A8CF8F2D0E94440FA4CF4F
:101260000111A2CF8F2D0E945D088F2D0E94500F7B
:101270008F2D0E94340F98CF112321F0063008F0F3
:1012800093CFE3CF053008F08FCF8F2D0E945D08FC
:101290008BCF0023D1F3D93349F43FEF87EE93E0AE
:1012A000315080409040E1F700C000008D2F0E9437
:1012B00002087ACF8C2F86958695837069F08130ED
:1012C00009F072CF8D2F9C2F9370111102C080E016
:1012D00090E00E94452068CF8D2F9C2F93701111B4
:1012E00002C080E090E00E9420205ECF612F8D2F11
:1012F0000E949D0759CF8C2F837079F5111154CF1F
:101300004D2F429546954770440F440F8D2F8F7097
:10131000042E01C0880F0A94EAF72D2F2071D4FF04
:1013200007C02FE030E001C0220F4A95EAF7209570
:10133000C695C695C370822BC23049F058F4C130AF
:1013400019F00E94F30A30CF0E94ED0A2DCF0E94BF
:10135000F90A2ACF0E94EA0A27CF8695112311F0B5
:101360008C2F8170882309F41FCF4D2F429546950D
:101370004770440F440F8D2F8F70042E01C0880FCB
:101380000A94EAF72D2F2071D4FF07C02FE030E038
:1013900001C0220F4A95EAF72095C695C695C370FD
:1013A000822BC23049F058F4C13019F00E94420B30
:1013B000FBCE0E943C0BF8CE0E94480BF5CE0E945B
:1013C000050BF2CECF70112329F08C2F0E94170B42
:1013D0008D2F3CCF8D2F0E945D088C2F0E94230BF8
:1013E000E3CED23F41F160F4D03FB9F0D13F81F07C
:1013F000112309F443C00111BDCE8C2F8F711FC082
:10140000D33F01F1D43FA1F780919F0382FD24C017
:101410008C2F8F71112311F312C0112341F005306D
:1014200008F0C2CE8C2F8F710E94300BBDCE0630DB
:1014300008F0BACEF7CF8C2F8F711111CFCF0E9449
:10144000170BB2CE112329F08C2F8F710E940E0B37
:10145000ABCE0E940A0BA8CE112331F063E08C2F93
:101460008F710E94A30FA0CE81E00E94C10F0230B5
:1014700008F49ACE82E00E94C10F96CE002359F064
:10148000D93309F013CFEFEFF7EE23E0E150F0404E
:101490002040E1F709CF8C2F8F71A0CF0F931F93BE
:1014A000CF93DF93EC01688179818D810E94F60BE7
:1014B0008C010E944E0B0E94E90AB801CE010E94E5
:1014C0006408DF91CF911F910F910895CF93DF931F
:1014D000EC018C81882399F0CE010E94B80681111D
:1014E00011C00E94060F882351F08D81882339F0A6
:1014F00080919F0382FF03C082E00E94C10FDF91B1
:10150000CF910895CE010E944E0ACE010E9471062D
:10151000F6CF90E080E00E94202090E080E00E94E2
:1015200045200E942D0F0E949C0F0E94811B0E944B
:10153000651B08950E94CA200E94890A08950E948E
:101540001D0F0E949A0A089592959F70963091F00F
:1015500058F4925F9F70923058F4803F19F030F445
:10156000883E30F481E008959A5FF4CF843FD1F350
:1015700080E00895883EB0F3813FD1F7F3CFFC01BE
:101580002481222339F0808191810E94EB0B0E94FB
:10159000A40A089580E00895A6E0B0E0E2EDFAE044
:1015A0000C94BF2B2696E2E00C94DB2BA7E0B0E076
:1015B000ECEDFAE00C94BF2B2796E2E00C94DB2BC9
:1015C00008950E94E00A08950E94E10A8093DE01D6
:1015D000089508950E94E40A08959091DE01892BF0
:1015E0000E94E40A08959091DE0189230E94E40A92
:1015F00008959091DE0189270E94E40A08950E94CF
:10160000E00A08950E94FF0A08950E94020B809349
:10161000DD01089580E00E94050B089591E001C06E
:10162000990F8A95EAF7892F0E94050B089521E00A
:1016300030E001C0220F8A95EAF78091DD01822B0C
:101640000E94050B089521E030E001C0220F8A9529
:10165000EAF720958091DD0182230E94050B089511
:1016600021E030E001C0220F8A95EAF78091DD0188
:1016700082270E94050B08959091DD01892B0E941D
:10168000050B08959091DD0189230E94050B0895B3
:101690009091DD0189270E94050B08950895262F5A
:1016A000277091E001C0990F2A95EAF723E076951B
:1016B00067952A95E1F7FB01EE0FFF1FE60FF71F75
:1016C000E40FF51F50E040E0682F70E08191DF01EA
:1016D00011979B01042E02C0369527950A94E2F7D4
:1016E000217021952827292328272C934F5F5F4FAE
:1016F0004330510559F70895A82FA77023E0969518
:1017000087952A95E1F7FC01EE0FFF1FE80FF91FFF
:10171000E60FF71F50E040E080E0219130E00A2E14
:1017200002C0369527950A94E2F721703327042EDC
:1017300001C0220F0A94EAF7822B4F5F5F4F4330BC
:10174000510559F70895262F911109C0853038F4B5
:10175000682F70E04AED51E0822F0E944F0B0895F0
:1017600091110AC0853030F46AED71E090E00E947A
:101770007C0B982F892F089590E0FCCFCF92DF92B9
:10178000FF920F931F93CF93DF936C010091DD01C4
:101790008091DE01082BC7E0D0E010E0FC2EC801EC
:1017A0000C2E02C0959587950A94E2F780FD0CC037
:1017B0002197A0F7F12C8F2DDF91CF911F910F91E1
:1017C000FF90DF90CF900895B6018C2F0E94DD121C
:1017D000019771F3F0CFCF93DF93EC010E94BE0B22
:1017E000BE010E94DD12DF91CF9108951F93CF9328
:1017F000DF93EB019091D901992339F0CB010E943D
:10180000EB0BDF91CF911F910895882369F0CB01F5
:101810000E94BE0B182F682FCE010E94A30BBE01A1
:10182000812F0E94DD12EDCFCB010E94B00B182F4B
:10183000F6CFE1E0F0E0DF0102C0AA0FBB1F6A951E
:10184000E2F7BD01DF0102C0AA0FBB1F4A95E2F714
:101850006A2B01C0EE0F2A95EAF7962F982396136C
:1018600002C08E2B0895E0958E230895242F462FD5
:10187000682F8091DD010E94190C0E94050B0895CC
:101880001F93CF93DF93C091DF0117E08091E001B8
:101890008C1304C0DF91CF911F910895D0E01C9F5D
:1018A000F0011D9FF00D1124EF51FE4F2081318179
:1018B000428153816481758186810E94D60A219676
:1018C000C770E4CF2091190230911A0240911B0297
:1018D00050911C0260911D0270911E0280911F02A6
:1018E0000E94D60A0895CF93DF9380911F02807FD4
:1018F00009F04DC080911E02882309F448C0E09190
:10190000DF015091E001C0911A02D091190260915B
:101910001B0270911C0247E05E17C9F18E2F90E008
:10192000E49FF0011124EF51FE4F2481222391F115
:10193000489FF001499FF00D1124DF01AF51BE4FC8
:1019400011962C9111972C1325C02C912D1322C088
:1019500015962C91159721111DC012962D913C9131
:10196000261B370B283C3105A8F480911F028F708D
:10197000806180931F02E951FE4F80818F708061EA
:10198000808389E192E00E94660A0E94400CDF9108
:10199000CF910895FC013196E770BECF482F20917A
:1019A000DF019091E00157E0291302C080E0089523
:1019B00030E0529FF001539FF00D1124EF51FE4F84
:1019C0008181681306C08081481303C0858181111D
:1019D000EECF2F5F3F4F2770E7CFA4E1B0E0E3EFFA
:1019E000FCE00C94B52B8C0186E0F801DE011F961B
:1019F00001900D928A95E1F7F8018481E58099E1E3
:101A0000A92E92E0B92E90911D0291111FC088233A
:101A1000D1F0EE20A9F0C8010E94BF0AF82E882359
:101A200079F087E0F801D50101900D928A95E1F7F0
:101A3000C5010E9494070E94730C0E94620C5FC053
:101A4000C8010E94660AFF24F39459C0C080D18067
:101A500082809380F0901E0220911B0230911C0224
:101A6000A401421B530BFF2009F4F9C0483C510567
:101A700008F0A7C0882309F442C090911A0280910F
:101A80001F02282F207F09F05CC09D1116C0909185
:101A90001902C91212C0E1104EC08F70806180938C
:101AA0001F020E94620C89E192E00E94660A809106
:101AB0001F02F8018683F12C22C0E1103CC06D2D7D
:101AC0008C2D0E94CE0C6D2D8C2D0E94CE0CE82EFC
:101AD0008111F1CFCF86D88A8F8598890E94EB0B30
:101AE000292F22952F70243078F49F702230A8F08F
:101AF0009923B9F0F8019681907F99F4FE2C8F2DEF
:101B00006496ECE00C94D12B2A5F2F70223068F0A1
:101B1000C8010E94660AEF2CF1CF992311F08823A7
:101B200069F3805E883050F3F3CF803F38F3815FF4
:101B3000833070F7E3CF80911F02816080931F0292
:101B4000BACF9D1113C090911902C9120FC0E110B4
:101B50000DC08683C8010E94660A87E0F801A9E1EA
:101B6000B2E001900D928A95E1F767CFC8010E941B
:101B7000BF0A882309F464CFEE2009F461CF809175
:101B80001F02803288F02091190230911A023987A1
:101B900028879B868A8690911D029C871D868E874A
:101BA000CE0108960E94660A87E0F801A9E1B2E03A
:101BB00001900D928A95E1F70E94730C0E94620CCD
:101BC00042CF90911F02292F207FA1F4682D9A8A7D
:101BD000898AA6017A899E2D0E94CC0A89E192E029
:101BE0000E94660A87E0F50111928A95E9F70E9442
:101BF000620C61CF882309F482CF80911A028D1183
:101C000010C080911902C8120CC0E1100AC096835E
:101C1000C8010E94660A87E0F50111928A95E9F7EA
:101C20006ECFC8010E94BF0A882309F409CFEE20B5
:101C300009F406CF80911F02803208F4B5CF2091BD
:101C4000190230911A023A8329839C828B829091E7
:101C50001D029D831E828F83CE010196A3CF483C37
:101C60005105B8F5882309F4EECEFE2CEE2009F4D8
:101C7000E7CE80911A028D111EC080911902C81200
:101C80001AC080911F0280FD0DC0982F907F51F0E7
:101C90008683903F09F45ECF982F907F905F8F707E
:101CA000892B57CF87E0F801A9E1B2E001900D92AE
:101CB0008A95E1F724CFC8010E94BF0A811174CF31
:101CC00080911F02816080931F02C8010E94660AF2
:101CD00016CF682D9A8A898AA6017A899E2D0E943C
:101CE000CC0A87E0F50111928A95E9F7A6CEAEE01D
:101CF000B0E0EDE7FEE00C94BE2B288739874A87D9
:101D00005B876C877D878E87CE0108960E94ED0CDD
:101D10008823B1F06C85662341F0288539854A8592
:101D20005B857D858E850E94D60A17E08091DF0154
:101D30009091E00189133DC02E96E3E00C94DA2BDC
:101D400087E0FE013896DE01119601900D928A958A
:101D5000E1F78C85882349F32091E00130E0C90147
:101D60000196877099274091DF014817190699F06D
:101D700097E0929FD001939FB00D1124AF51BE4FB9
:101D8000FE01319601900D929A95E1F78093E00162
:101D90000E94400CCACF0E949F0A1092E00110924C
:101DA000DF0187E0E9E1F2E0DF011D928A95E9F7C2
:101DB000BCCF819FC00111248F519E4F0E94ED0C1A
:101DC000882309F4B9CFE091DF011E9FF0011124AF
:101DD000EF51FE4F208131814281538164817581B1
:101DE00086810E94D60A8091DF0190E0019687707B
:101DF00099278093DF019ACF809128028695869556
:101E00008695089580912802877008959091280200
:101E1000977081E009F480E008958091340208957C
:101E200090913402892B809334020895809590918B
:101E30003402982390933402089510923402089546
:101E400090913302892B809333020895809590916D
:101E50003302982390933302089510923302089529
:101E600008950E94300F089590912902292F282368
:101E700031F080958923809329020E94310F0895C3
:101E800008950E94400F089590912A02292F282337
:101E9000281729F0982B90932A020E94410F089549
:101EA00090912A02292F282331F08095892380934D
:101EB0002A020E94410F089580912A02882329F066
:101EC00010922A0280E00E94410F08950F931F9301
:101ED000CF93DF9300910C0110910D01C09134025A
:101EE00080913302C82B80912A02882331F0C82BBD
:101EF0000E946A2081110E945C0FF801C083C0918A
:101F00000C01D0910D0148E050E060E272E0CE019A
:101F10000E94E62B892B59F088E0FE01A0E2B2E096
:101F200001900D928A95E1F7CE010E940720DF9182
:101F3000CF911F910F9108950E94660F0895089503
:101F40000E949F0F089590919F0392FF11C098E007
:101F5000899F90011124622B609328020E94170B25
:101F6000809128028695869586950E94A00F0895F7
:101F70000E94170B08951092280280E00E94A00F83
:101F80000895909128028095892380932802282F14
:101F9000277069F4891759F090919F0392FF07C049
:101FA0008695869586950E94230B0E94BB0F089507
:101FB00090919F0392FB222720F9281769F080FB5C
:101FC00092F990939F0380919E0390919F030E94AA
:101FD000271082E00E94C10F089580919F0382FB29
:101FE000882780F991E089270E94D80F089581E021
:101FF0000E94D80F089580E00E94D80F08956FEFD7
:102000007FEF90E080E00E943E2C089590E080E019
:102010000E940A2C853E9E4F19F40E94AC1E089522
:1020200080E0089582E090E00E94FC2B089583E018
:1020300090E00E94FC2B0895682F83E090E00E94BE
:10204000202C089584E090E00E940A2C0895BC01A1
:1020500084E090E00E943E2C08958FE090E00E9482
:10206000042C0895AB01BC018FE090E00E94322C5B
:102070000895AB01BC0183E190E00E94322C0895E9
:1020800060E070E0CB010E9439100895A8E0B0E054
:10209000ECE4F0E10C94BF2B65EE7EEF90E080E085
:1020A0000E943E2C60E082E090E00E94202C81E0C3
:1020B0008093DE010E941C1060E074E184E090E0F7
:1020C0000E943E2C60E086E090E00E94202C60E0C0
:1020D00087E090E00E94202C40E050E0BA0188E0C8
:1020E00090E00E94322C60E083E290E00E94202C7D
:1020F00060E08CE090E00E94202C60E08DE090E0B9
:102100000E94202C19821A821B821C821D821E8230
:102110001F82188648E050E067E170E0CE0101962A
:102120000E94102C40E050E0BA018FE190E00E9444
:10213000322C80E00E94C51E0E94F41E0E94DD0524
:102140002896E2E00C94DB2B0E9446100895682F3D
:102150008EE090E00E94202C0895A6E0B0E0E3EB32
:10216000F0E10C94BD2B0E94EE218C018091350290
:10217000909136028017910781F019821A820E948D
:10218000EE21682F49815A81792F80E090E00E94EA
:10219000640710933602009335022696E4E00C940F
:1021A000D92B0E94FA2160934402709345028093D8
:1021B00046029093470260934002709341028093DD
:1021C00042029093430208950E94FA2160934402D0
:1021D00070934502809346029093470260933C02BD
:1021E00070933D0280933E0290933F0208950E94B7
:1021F000FA216093440270934502809346029093C3
:102200004702609338027093390280933A029093A8
:102210003B0208950895089508950E940C110895B1
:1022200083ED93E10E94C8140E940B110E94A20545
:10223000089581E008950E94191108950E941911CE
:102240000895089508950E9421110E942211089571
:102250000E940610811102C00E94A4100E94121058
:10226000809348020E94221090939F0380939E03C4
:102270000E9471170E9417100E94EA0A8091DD01E6
:102280000E94020B08950E94E5210E94041F0E94F3
:10229000B3160E9443140E9428110E943E070E9418
:1022A000FC140E940D110895A6E0B0E0EAE5F1E10A
:1022B0000C94B92B0E941B11811114C00E94AD1007
:1022C0000E94201781110E94E4100E945415811170
:1022D0000E94F7100E94BE1B0E944B072696E8E062
:1022E0000C94D52B0E944F141091370280E00E946D
:1022F000EF13181719F38091480281FD0E94F5131E
:102300000E941E11D82E80E00E94EF13182F80919A
:102310003702181729F1E12EE82600E0FF24F39494
:10232000CC24C3948E2D8F21A9F0DD2099F0098350
:102330001A820E94EE219C838B83CD8291E0812FB3
:102340008F2109F490E049815A816B817C818D81D4
:102350000E9464070F5FFF0C053021F710933702CE
:102360000E94D110ADCF1F93CF93DF930E94E21252
:10237000EC01C11580E5D807F0F5C11580E4D80758
:1023800008F09CC0C03ED10520F5CD3CD10508F039
:1023900082C0C83AD10578F4C53AD10508F073C0B7
:1023A000C130D10519F1209709F1C430D105F0F4FD
:1023B000D0E0C0E01BC0C33CD105D0F7C85AD0E084
:1023C000CC0FDD1FC159DE4F0990D881C02DD464D8
:1023D0000DC0C11580E2D80708F0D1C0C11581E059
:1023E000D80708F05AC0C83ED10510F7CE01DF91DA
:1023F000CF911F910895C03682E5D80718F5C034F3
:1024000082E5D80708F06BC0C03282E5D80708F033
:102410005FC0C11582E5D80708F497C02C2F269518
:10242000269580E2289F900111248C2F8370C1E0B3
:10243000D0E002C0CC0FDD1F8A95E2F7C22BD32B70
:10244000DD68D4CFC03A82E5D80760F4C03882E5B1
:10245000D80708F459C0CF71D0E0DC2FCC27C46F67
:10246000D06AC4CFC03C82E5D80708F462C0C03E41
:1024700082E5D80708F09CCFDC2FCC27CC27DF7172
:10248000C06FD06AB3CFC55AD0E0CB55DE4FC881FC
:10249000D0E0D064ABCFD065A9CF8D2F0E9484133C
:1024A000182FCE0199270E94E212C12FD0E0DC2F15
:1024B000CC27CC27DF71C82BD92B98CFCE019927F9
:1024C0000E94E212CC27DF70C82BD92BD06A8ECFA6
:1024D000CF71D0E0DC2FCC27C16FD06A87CF2C2FF3
:1024E00026952695277080E2289F900111248C2F35
:1024F0008370C1E0D0E002C0CC0FDD1F8A95E2F707
:10250000C22BD32BDC6872CF2C2F269526952770F3
:1025100080E2289F900111248C2F8370C1E0D0E0CD
:1025200002C0CC0FDD1F8A95E2F7C22BD32BDA68ED
:102530005DCF8C2F8F710E948413C82FD0E0DC2FC9
:10254000CC27CC27DF71D06251CF8C2F8F710E94A6
:10255000841355E0D695C7955A95E1F7CF70D0E032
:10256000DC2FCC27282F30E084FF05C044E0220F69
:10257000331F4A95E1F7C22BD32BD06937CF8D2F6C
:102580008F710E948413182FCE0199270E94E212A6
:10259000C12FD0E0DC2FCC27CC27DF71C82BD92B63
:1025A000D2CF462F711106C0653020F460E00E9442
:1025B0001F18089590E080E008950E94D1120E94B3
:1025C000B311089582389105B9F1B0F481339105C2
:1025D00009F47DC048F48932910509F46DC08A324E
:1025E000910509F47BC008958533910509F45FC016
:1025F0008933910509F10895833E9105D9F138F4A5
:10260000803E910529F1823E910579F10895863E3B
:102610009105D9F1873E910509F43EC0843E9105AC
:1026200041F520919F0321FF24C080919E0384FDEA
:1026300019C087EE90E0089520919E03237009F061
:102640005AC020919F0323FF14C089E290E00895AF
:1026500020919E0320FD38C030919F0330FF09C0B8
:1026600024FF43C090E080E0089520919E0322FD66
:10267000F7CF089520919E0322FD3AC030919F0329
:1026800030FD39C024FFF5CFEDCF20919E0323FF0D
:10269000F0CF24FDE7CFCDCF20919E0323FD2EC0A8
:1026A00030919F0331FFEECF84EE90E008952091AA
:1026B0009E0325FFDECFC9CF20919E0325FD21C0BB
:1026C00020919F0323FFD5CF89E390E0D2CF2091C3
:1026D0009E0326FFCECF8AE290E0089520919E03CC
:1026E00026FFC7CF81E390E0089583EE90E0089540
:1026F00082EE90E0089580EE90E0089586EE90E0FE
:10270000089585E390E0089590919E0392FF10C094
:1027100041E0282F2471243009F040E031E0282FD7
:102720002871283009F030E0431711F02CE082279F
:1027300093FF10C041E0282F2471243109F040E0BC
:1027400031E0282F2871283109F030E0431711F0CB
:102750002CE0822730919F0330FF10C051E0282FDA
:102760002171213009F050E041E0282F28712830F4
:1027700009F040E0541711F029E0822731FF10C022
:1027800041E0282F2171213109F040E031E0282F6C
:102790002871283109F030E0431711F029E0822731
:1027A00094FD877E089580E00895CF939C01205E7C
:1027B0003245C1E02032310538F4FB01C581C11139
:1027C00003C08F710E9486068C2FCF9108950895C3
:1027D0000E94E713089508950E94EB130895E82FCF
:1027E000F0E0EF55FC4F808108950895CF93A8EA5B
:1027F000B1E04DEA51E061E070E08D918F3F91F0E2
:10280000E82FE295EF70F0E0C1A18F709B0101C04D
:10281000220F8A95EAF7922F90959C2391A382A18B
:10282000822B82A34A175B0741F7CF910895CF937C
:10283000DF93AC01A62FB0E085E0689FF001112482
:10284000E855FE4F75E081E060E091919F3FC9F04F
:10285000C92FC295CF70D0E028A130E09F7002C090
:10286000359527959A95E2F720FD0BC0282F622B0E
:10287000880F715051F7A40FB51F6C93DF91CF9162
:10288000089520E0F4CF0E94F6131092A103109255
:10289000A00381E00E9474140E94E8130895A1E04F
:1028A000B0E0E5E5F4E10C94BE2B198260E0CE01C6
:1028B00001960E9417149091A003898121E098133A
:1028C00001C020E098138093A00341E061EA73E027
:1028D00080EA93E00E947514182F0E94EC13812F58
:1028E0002196E3E00C94DA2B0895B0E0A0E0EBE74A
:1028F000F4E10C94B92B6C017B01042FC22F22232D
:1029000079F081E080934B020E94EE2190934A027D
:102910008093490280E0CDB7DEB7E8E00C94D52B78
:10292000D0914B02DD23B1F38091490290914A028C
:102930000E940622059770F310E0A801B601C701B6
:102940000E94E62B892B31F0A801B601C7010E9435
:10295000F32BCD2F10924B028C2FDDCF0E94541100
:1029600008950E9487210E944A240E9410110E940B
:1029700064240E9443110E9471240E9476240E94C4
:10298000AE140E9490240E9415230E942311F5CFBB
:102990009093C5018093C40108950895ACE0B0E020
:1029A000E4EDF4E10C94BF2B4F83588769877A8755
:1029B0008B879C8786E0FE013796DE011196019099
:1029C0000D928A95E1F729813A814B815C816D8175
:1029D0007E8180E090E02C96E2E00C94DB2B21E0FD
:1029E00030E001C0220F4A95EAF7662311F0822BEE
:1029F0000895209582230895E0910E01F0910F0132
:102A00000190F081E02D09950E94ED050E94CD1402
:102A10000895CF936CE472E083E592E00E94D520A4
:102A2000C82F882321F083E592E00E941220909124
:102A3000540286E0E3E5F2E0DF01282F1D922A959B
:102A4000E9F790935402ACE4B2E001900D928A95BC
:102A5000E1F781E0C11103C0911101C080E08170F4
:102A6000CF910895ACE0B0E0E8E3F5E10C94BF2B22
:102A70004F8358878B879C87719579876A8786E013
:102A8000FE013796DE01119601900D928A95E1F7CD
:102A900029813A814B815C816D817E8180E090E06B
:102AA0002C96E2E00C94DB2BA6E0B0E0EAE5F5E141
:102AB0000C94BF2BE0910E01F0910F010280F38185
:102AC000E02D409153025091540260915502709153
:102AD000560280915702909158020995F42FE52FE4
:102AE000CB012093530230935402F0935502E093AC
:102AF00056026093570290935802A9016F2F7E2FC0
:102B00000E943215F42FE52FCB012093530230930E
:102B10005402F0935502E09356026093570290934B
:102B20005802A9016F2F7E2F0E94E80420935302C0
:102B300030935402409355025093560260935702CB
:102B4000709358020E948F1B80915402832B8093B4
:102B500054020E940915811109C0809152021092FD
:102B6000520281702696E2E00C94DB2B81E090E02B
:102B7000F6CFE0910E01F0910F010480F581E02D78
:102B8000099508959C01215D31092830310550F4E3
:102B90004FE2480F809154020E94EF148093540238
:102BA0000E94091508952C9808952C9A08953E982E
:102BB000469898E080E02F9825E02A95F1F70000EC
:102BC00026B126FB222720F9880F822B2F9A25E099
:102BD0002A95F1F70000915071F708953E9A27E089
:102BE00030E090E02F98AC01022E02C05595479539
:102BF0000A94E2F740FF0EC0469A4AE04A95F1F780
:102C000000C02F9A2150310968F785E18A95F1F7C4
:102C1000000008954698F1CFCF93C82F0E94D31596
:102C20008C2F0E94EE150E94D715C82F85E08A953B
:102C3000F1F700000E94D5158C2FCF91089589E1FE
:102C40000E940C1680712DE7829FC0011124089507
:102C5000CF93DF93D82FC62F0E94D3158D2F806876
:102C60000E94EE158C2F0E94EE150E94D515DF9163
:102C7000CF91089561E08D37910548F06DE0863D74
:102C800026E0920720F46DE770E00E947A2B6061E5
:102C900089E10E942816089587FD80680895CF93E2
:102CA000DF930E94D31580915902C0E090E081111A
:102CB00013C083E60E94EE150E94D715C82F0E940C
:102CC000D715D82F0E94D5158C2F0E944C16C82FCF
:102CD0008D2F0E944C16982F8C2FDF91CF91089545
:102CE000279A3E9A249A6AE58AE30E9428162FE7DB
:102CF0008FEA92E0215080409040E1F700C0000050
:102D0000109259020E944F160895ACE0B0E0EBE833
:102D1000F6E10C94BD2B4F8358878B879C87162F29
:102D2000072F0E944F16811104C0911102C0902FED
:102D3000812F89879A8786E0FE013796DE011196FA
:102D400001900D928A95E1F729813A814B815C814E
:102D50006D817E8180E090E02C96E4E00C94D92B8C
:102D60000E9419110895EBE5F2E088E0DF011D9261
:102D70008A95E9F70E943D040895FC01228130E024
:102D80002F5F3F4F23703327938181E09217130603
:102D900009F080E008950F931F93CF93DF93EC0128
:102DA000162F042F0E94BD16811119C08A8190E050
:102DB000FE01E80FF91F1F7764816078612B00FB2B
:102DC00067F964830196837099278A8388818F5F6E
:102DD000888381E0DF91CF911F910F91089580E06A
:102DE000F9CFFC01A38182818A17C1F0AE0FBF2FFA
:102DF000B11D14968C9187FB992790F98F77DB0191
:102E00008C93DA019C93838190E0019683709927DB
:102E1000838381818F5F818381E0089580E00895BD
:102E2000462F682F8BE592E00E94CB160895AB01E8
:102E3000BC018BE592E00E94F116089581E00895AF
:102E4000A2E0B0E0E6E2F7E10C94BD2B80915A02DB
:102E5000882351F010925A0280915D0280935E02A5
:102E600080915B0280935C020E9487040E94B016EE
:102E7000182F882389F010E005C069818A810E949B
:102E80002C04102FBE016F5F7F4FCE0102960E946F
:102E90001717082F8111F1CF812F2296E4E00C94AF
:102EA000D92B0E94FF0F089580E00E94EF1383FB4F
:102EB000882780F908950E944F142FEF86E791E04C
:102EC000215080409040E1F700C000000E944F1464
:102ED0000E945417882321F00E9451170E94392222
:102EE00008950E945B17089588E008950F931F933B
:102EF000CF93DF93883008F561111FC04530E8F4A7
:102F0000042F10E0000F111F2AE0829F000D111DF9
:102F10001124C80188960E94FC2BC82FD0E0DC2F1A
:102F2000CC27C80189960E94FC2B9E01282BC90141
:102F3000DF91CF911F910F91089590E080E0F8CF3D
:102F40001F93CF93DF93122F8830B8F4611115C00F
:102F5000453098F4C42FD0E0CC0FDD1F9AE0899F54
:102F6000C00DD11D1124632FCE0188960E94202C04
:102F7000612FCE0189960E94202CDF91CF911F9165
:102F80000895CF93DF93D0E0C0E04C2F60E08D2F09
:102F90000E9407069C014C2F60E08D2F0E94A01715
:102FA000CF5FC53091F7DF5FD83071F7DF91CF91F8
:102FB0000895EF92FF920F931F93CF93DF93EC014D
:102FC0008A017C01E60EF71ECE018896CE15DF053C
:102FD00029F4CDB7DEB7E6E00C94D72BC035D10588
:102FE00040F40E94FC2BF80180830F5F1F4F219655
:102FF000EBCFF8011082F9CFB0E0A0E0E2E0F8E119
:103000000C94B92B7C016A018C01060F171FEC018F
:10301000CE018896C017D10729F4CDB7DEB7E8E016
:103020000C94D52BC035D10540F4FE01EE19FF09F3
:10303000EC0DFD1D60810E94202C2196E9CF883087
:1030400038F4611105C0453018F40E9476170895D0
:1030500090E080E0089580E1089588E893E0089585
:10306000EF92FF920F931F93CF93DF93EC018A01AE
:103070007C01E60EF71ECE0188589F4FCE15DF0566
:1030800029F4CDB7DEB7E6E00C94D72BC83823E09F
:10309000D20740F40E94FC2BF80180830F5F1F4F82
:1030A0002196E9CFF8011082F9CFB0E0A0E0EBE57E
:1030B000F8E10C94B92B7C016A018C01060F171FF3
:1030C000EC01CE0188589F4FC017D10729F4CDB726
:1030D000DEB7E8E00C94D52BC83823E0D20740F4E3
:1030E000FE01EE19FF09EC0DFD1D60810E94202CF0
:1030F0002196E7CFCF93DF93C8E7D0E060E0CE0121
:103100000E94202C2196C11584E0D807B9F7DF91E1
:10311000CF910895A8E0B0E0E0E9F8E10C94B72B76
:10312000F82E8FE08F1508F46EC08FEF93E00E94A9
:10313000FC2B811168C008E710E0F11035C0FE01DA
:1031400031966F0188E011928A95E9F77801FFEFD7
:10315000EF1AFF0AC8010E94FC2B89831A82882378
:1031600009F451C08130D1F4580182E0A80EB11C9D
:10317000C7010E94FC2B8A83882309F444C09FEF77
:10318000980F9330F0F4780193E0E90EF11CC5013B
:103190000E94FC2B8B838823B1F11C8260E0C60166
:1031A0000E94501D8701D2CF011594E0190759F1F3
:1031B000C8010E94FC2B811101C0FA940F5F1F4FC0
:1031C000BCCF7501843051F702E010E07501EFEFDC
:1031D000EE1AFE0AC5010E94FC2BF601E00FF11F5A
:1031E0008083882381F08C3741F4E2E0F0E0EC0F3B
:1031F000FD1FE00FF11F1082D1CF0F5F1F4F57014E
:103200000730110519F72896EAE00C94D32BCF93D9
:10321000DF93EB0186319C4711F50E940D0F9D81D4
:10322000992399F08A7A91E009F490E090936302EF
:10323000811109C089E20E94BA200E949C0F80E09F
:10324000DF91CF91089585E3F6CF809163028111DC
:1032500004C089E20E94C220F0CF85E3FBCF81E069
:10326000EFCFCF93DF93EC01FB018581882309F435
:10327000D2C09E0130572332310508F0B2C00E94FF
:10328000221090939F0380939E03FE01E150F0472C
:10329000E232F10520F4EE59F34D0C94A22B80910B
:1032A0009E03816080939E0393C080919F038860FA
:1032B00080939F038DC080919E038260F3CF8091A5
:1032C0009E038460EFCF80919E038860EBCF809156
:1032D0009F038160EDCF80919F038260E9CF809151
:1032E0009E038061DFCF80919E038062DBCF80915F
:1032F0009E038064D7CF0E949F0A80919E038068BE
:10330000D1CF80919E038C60CDCF80919F0383604D
:10331000CFCF80919E038E7FC5CF80919F03877F03
:10332000C7CF80919E038D7FBDCF80919E038B7F01
:10333000B9CF80919E03877FB5CF80919F038E7F09
:10334000B7CF80919F038D7FB3CF80919E038F7EF7
:10335000A9CF80919E038F7DA5CF80919E038F7B07
:10336000A1CF0E949F0A80919E038F779BCF80916F
:103370009E03837F97CF80919F038C7F99CF80910D
:103380009E0382FB992790F921E0922790FB82F916
:1033900090FB83F987CF80919F03982F9095917030
:1033A0008E7F892B90FB81F983CF90919E03892F8B
:1033B0008F7B96FF806476CF0E949F0A90919E0338
:1033C000892F97FB87F980586DCF81E00E94A71065
:1033D00080919E0390919F030E9427100E949F0A54
:1033E00080E0DF91CF91089580E0F0CF90919E032F
:1033F000892F8F7E94FF806155CF90919E03892FF6
:103400008E7F90FF81604ECF90919F03892F877FA1
:1034100093FF88604DCF81E0E4CF282F35EB230365
:10342000C001112497FF04C080589109892F089585
:1034300080589F4FFBCF80916A0280FF0DC0609142
:10344000150170E0660F771F6038710570F5611522
:10345000710569F1862F089581FF07C060911501FC
:1034600084E0689FB0011124EFCF6091150182FDC7
:103470000AC0809169028823A9F02091140160910B
:103480001501821710F088E0ECCF869FC00111244F
:1034900033E0880F991F3A95E1F7622F70E00E94A0
:1034A0008E2BD2CF68E070E0D5CF8FE7089581E012
:1034B000089580916A0280FF0CC06091110170E054
:1034C00075956795759567956115710549F1862F15
:1034D000089581FF06C06091110170E075956795B0
:1034E000F3CF6091110182FD0BC090916802992386
:1034F000A1F06091100180911101961738F0682FAA
:1035000070E06038710500F38FE70895899FC0016E
:10351000112470E00E948E2BF4CF61E070E0D7CFD1
:1035200081E008958D3C31F40E941B1A81958093AF
:103530006E0208958E3C19F40E941B1AF8CF8F3C3E
:1035400031F40E941B1A819580936D020895803D8D
:1035500019F40E941B1AF8CF893D29F40E94591AC8
:1035600080936F0208958A3D21F40E94591A819533
:10357000F7CF8B3D31F40E94591A819580937002E8
:1035800008958C3D19F40E94591AF8CF9FE2980FC4
:10359000983070F4815D990B21E030E001C0220F7A
:1035A0008A95EAF780916C02822B80936C020895D1
:1035B0008D3D31F480916A02816080936A020895A2
:1035C0008E3D21F480916A028260F7CF8F3DB9F77A
:1035D00080916A028460F1CF40916D028D3C59F474
:1035E00080916E0287FF0DC010926E0241110BC0D8
:1035F0001092690208C08E3C81F480916E02181608
:103600009CF3442381F080916F0290917002892B8A
:1036100009F05AC01092680208958F3C49F447FFA0
:10362000F0CF10926D0280916E028111ECCFE0CF4D
:10363000803D19F41416ACF3E4CF90916F02893DEC
:1036400029F41916F4F610926F02DBCF8A3D19F4B3
:1036500097FFD7CFF8CF909170028B3D29F497FF59
:10366000D0CF10927002CDCF8C3D19F41916CCF347
:10367000C8CF9FE2980F983090F4815D990B21E0BC
:1036800030E0B90102C0660F771F8A95E2F7CB01DF
:10369000809590916C02892380936C02B2CF8D3D0E
:1036A00031F480916A028E7F80936A02AACF8E3DA8
:1036B00021F480916A028D7FF7CF8F3D09F0A1CF71
:1036C00080916A028B7FF0CF08950E94EE219C01C9
:1036D00090916D0280916E02982B21F030936702D9
:1036E0002093660290916F0280917002982B21F0D6
:1036F00030936502209364028BE692E00E941220D0
:10370000089586E0EBE6F2E0DF011D928A95E9F785
:10371000109269021092680210926A020895A6E05F
:10372000B0E0E5E9FBE10C94BF2B86E0EBE6F2E0CC
:10373000DE01119601900D928A95E1F729813A8177
:103740004B815C816D817E8180E090E02696E2E095
:103750000C94DB2BFC01828181110EC083818111CD
:103760000BC08481811108C091E08581811101C065
:1037700090E0892F8170089581E0FCCFA6E0B0E051
:10378000E4ECFBE10C94BE2B86E0EBE6F2E0DE011C
:10379000119601900D928A95E1F710926D021092A8
:1037A0006E0210926F02109270028B819C81892BA5
:1037B00089F080916602909167020E940622AC0116
:1037C000909169029923C9F1809116018417150619
:1037D00008F440C08D819E81892B91F08091640214
:1037E000909165020E940622AC0190916802992393
:1037F00009F46AC0809112018417150608F472C09A
:10380000BE016F5F7F4F8BE692E00E94D520811151
:1038100005C08BE692E00E94AA1B81110E94651BE5
:1038200086E0FE013196ABE6B2E001900D928A95FA
:10383000E1F72696E3E00C94DA2B209117018AE059
:10384000289F900111242417350720F69F5F90933D
:10385000690202C09F3FD1F71B81112359F00E94DA
:103860001B1A9FEF11160CF491E0899F802D1124F3
:1038700080936D021C81112359F00E941B1A9FEF47
:1038800011160CF491E0899F802D112480936E0213
:1038900080916D02882309F49DCF10916E0211234F
:1038A00009F498CF0E940D1A882351F080936D027D
:1038B000812F0E940D1A882329F080936E028ACFEF
:1038C00081E0F4CF81E0F9CF209113018AE0289FB5
:1038D000900111242417350708F092CF9F5F909331
:1038E000680202C09F3FD1F71D81112359F00E9449
:1038F000591A9FEF11160CF491E0899F802D112425
:1039000080936F021E81112359F00E94591A9FEF74
:1039100011160CF491E0899F802D11248093700280
:1039200080916F02882309F46BCF109170021123EC
:1039300009F466CF0E940D1A882351F080936F021C
:10394000812F0E940D1A882329F08093700258CF8E
:1039500081E0F4CF81E0F9CFB0E0A0E0E2EBFCE160
:103960000C94B82BE82FF0E0E450FF4FB490282FD0
:1039700026952695269530E0F901E456FE4F0491F0
:10398000877010E0082E02C0159507950A94E2F79B
:1039900001701127F901E457FE4FE490F12C082E35
:1039A00002C0F594E7940A94E2F791E0E922FF243B
:1039B000F901E458FE4FC491D0E002C0D595C795F7
:1039C0008A95E2F7C170DD27C62ED12C01151105AD
:1039D00049F5E114F10431F086EE0E94B907C60101
:1039E000009771F5B6018B2D0E943508C60100972E
:1039F00079F5E114F104A1F50115110531F081EE1D
:103A00000E940208C6010097C9F5CD2B31F08CE267
:103A10000E944D08C114D104C9F5CDB7DEB7E9E065
:103A20000C94D42B81EE0E94B907C601009789F24D
:103A3000EFE9FFE03197F1F700C000000197F6CF02
:103A4000EFE9FFE03197F1F700C000000197C8CF20
:103A5000EFE9FFE03197F1F700C000000197C7CF11
:103A600086EE0E940208C601009731F2EFE9FFE0FE
:103A70003197F1F700C000000197F6CFEFE9FFE0C2
:103A80003197F1F700C000000197BDCF8FE99FE0AB
:103A90000197F1F700C0000091E0C91AD108BACF30
:103AA000EF92FF920F931F93CF93DF93EC01162FAA
:103AB0000AE08881882309F459C0813009F052C096
:103AC0008981813071F47E0182E0E80EF11C8A81E7
:103AD0000E944D08E701812F90E00097D9F52196CB
:103AE000E8CF823041F47E01E2E0EE0EF11C8A81E3
:103AF0000E94B907EFCF833041F47E01F2E0EF0E70
:103B0000F11C8A810E940208E5CF843011F02196D1
:103B1000E2CF2A81229690E080E0AE014F5F5F4FB6
:103B20002053330B2A30310550F00097A1F2EFE912
:103B3000FFE03197F1F700C000000197F6CF089F32
:103B4000B001099F700D1124C901860F971F2981AB
:103B5000EA01E3CFEFE9FFE03197F1F700C00000A1
:103B60000197BBCF612F0E94AC1CB9CFCDB7DEB798
:103B7000E6E00C94D72B0F931F93CF93DF93C42FC2
:103B8000D22FFC0185818823C9F0409373020E94E3
:103B9000EE21909372028093710280E28C0F883044
:103BA00040F4C77081E001C0880FCA95EAF70E940F
:103BB0005608DF91CF911F910F91089510917302D4
:103BC000141332C080917102909172020E940622F9
:103BD000883C910548F5C0E2CD0F1D17B9F080E291
:103BE000810F883040F4177081E001C0880F1A956A
:103BF000EAF70E945D08C83048F481E09D2F977075
:103C000001C0880F9A95EAF70E945608802F0E94FB
:103C10004D08C83070F6D77081E001C0880FDA9582
:103C2000EAF70E945D08C5CF80E28C0F883008F665
:103C3000C77081E001C0880FCA95EAF7F2CF0F93F1
:103C4000DB0188519C4787309105A0F5FC01EC57BA
:103C5000F34D0C94A22B06E221EE41EE6AE17CE7E3
:103C6000CD010E94BB1D80E00F91089507E225EE73
:103C700045EE6BE17CE7F4CF06E221EE40EE68E131
:103C80007CE7EECF07E225EE44EE69E17CE7E8CF82
:103C900006E221EE42EE6CE17CE7E2CF07E225EEA0
:103CA00046EE6DE17CE7DCCF08E221E045EE6EE117
:103CB0007CE7D6CF15968C91882319F01092730269
:103CC000D3CF81E0D1CF1F93CF93DF9387372CE7FA
:103CD000920759F0C1E088379C47E1F4FB01C581A8
:103CE000CC2371F10E94A61E06C0FB01C581CC2326
:103CF000B1F00E94A31E0E94170B0E94A91ED82F8C
:103D00000E94A61EC82F0E94A31E4D2F6C2F0E943A
:103D1000360CC0E08C2FDF91CF911F9108950E9447
:103D2000A31E0E94230B0E94A91E182F0E94A61EEC
:103D3000D82F0E94A31E412F6D2F0E94360CEACF70
:103D40000E94A61EEECF80911A010895809119015C
:103D5000089580911801089584E290E00E94FC2B60
:103D6000843289F485E290E00E94FC2B823159F480
:103D700086E290E00E94FC2B91E0813109F090E016
:103D8000892F8170089580E0FCCFCF93C82F6FEF0B
:103D9000811164E284E290E00E94202C6FEFC11157
:103DA00062E185E290E00E94202C6FEFC11161E199
:103DB00086E290E00E94202CCF910895089587E23A
:103DC00090E00E94FC2B682F70E090E080E0089566
:103DD0000895CF93C62F0E94E81E6C2F87E290E0D3
:103DE0000E94202CCF91089580E00E94C51E60E0C3
:103DF00070E0CB010E94E91E0E94C1170E947A1850
:103E000081E00E94C51E08950E94DE1E0E94DF1EF2
:103E10000E94E81E0E94AC1E811102C00E94F41E86
:103E2000089508959C01FB018581882351F0A90123
:103E300057574038510530F4822F0E948A1880E08D
:103E4000089581E008952FEFFC01208308950E94DA
:103E5000231F089580E00895EF92FF920F931F9320
:103E6000CF93DF93EC01162F0E942A1F811110C0FF
:103E7000E881E150E331B8F4F0E0E557F34D0C94FC
:103E8000A22B19828CE08A83612FCE010E940C2321
:103E9000CDB7DEB7E6E00C94D72B89818230C1F034
:103EA00028F4813061F08FEF8883EECF833099F072
:103EB0008430C9F71A821B821C821D82E5CF0E94C2
:103EC000FA210E94A82B6A837B838C839D83DCCF9D
:103ED0000E94DF1EF6CF0A81802F90E07E0123E052
:103EE000E20EF11C892B81F680E00E94EF13F701AE
:103EF00081937F0181E090E0053EA1F7C5CF8981E4
:103F0000823031F0853079F68A810E94111FBCCF52
:103F10006A817B818C819D810E94A82B0E94E91E71
:103F2000B3CF4B816A8189810E94761798278927B0
:103F300098279D838C83A8CF2C813D81322723270E
:103F400032274B816A8189810E94A0179DCF0E94F0
:103F5000C1179ACF612FCE010E94271F95CF0E94D3
:103F60002B18898391CF0E942D189827892798278D
:103F70009A83898389CF6B8170E089819A81AE01B0
:103F80004C5F5F4F9827892798270E9430187CCF75
:103F90006B8170E089819A81AE014C5F5F4F9827F9
:103FA000892798270E9455186FCF0E947A186CCFE6
:103FB0000E947417D6CF6B8170E089819A81AE011F
:103FC0004C5F5F4F9827892798270E94D9175CCFAD
:103FD0006B8170E089819A81AE014C5F5F4F9827B9
:103FE000892798270E94FC174FCF909379028093DE
:103FF00078020895E0917802F0917902309729F0E3
:104000000190F081E02D0995089580E00895E091F8
:104010007802F0917902309721F00280F381E02D4F
:1040200009950895E0917802F0917902309739F07E
:1040300022E0DC012C930680F781E02D099508959C
:10404000A3E0B0E0E6E2F0E20C94BF2B2091760210
:104050003091770228173907A1F090937702809367
:104060007602E0917802F0917902309751F023E0E6
:1040700029839B838A830084F185E02DCE010196FC
:1040800009952396E2E00C94DB2BA3E0B0E0EBE48F
:10409000F0E20C94BF2B2091740230917502281726
:1040A0003907A1F09093750280937402E091780231
:1040B000F0917902309751F024E029839B838A8321
:1040C0000084F185E02DCE01019609952396E2E06A
:1040D0000C94DB2B40910C0150910D019A012E5F45
:1040E0003F4F485F5F4F80E02417350709F408957C
:1040F000F90191919F019923B9F38F5FF5CF88233F
:1041000071F020910C0130910D01F9013296285F78
:104110003F4F9191981729F0E217F307D1F780E00C
:10412000089581E008959C01FC0132969FEF80E0A4
:104130004191461751F09F3F19F4411101C0982F4A
:104140008F5F8630A9F79F3F09F40895290F311D2D
:1041500097FD3A95F90162830895FC01329608961D
:104160002191261303C0DF0111971C92E817F9076C
:10417000B9F70895682F80910C0190910D010E946C
:1041800093200895682F80910C0190910D010E9459
:10419000AD200895E0910C01F0910D01329686E07A
:1041A000DF011D928A95E9F70895DC01FB01119664
:1041B0009C9111978181981322C012968C9112972D
:1041C000882319F0928189131AC013968C91139742
:1041D000882319F09381891312C015968C91159735
:1041E000882319F0958189130AC014969C9199230C
:1041F00021F081E02481291303C080E001C081E027
:104200008170089508950E940221089581110EC0C1
:1042100081E080931E0160911B0170911C018091CF
:104220001D0190911E010E940321089582E0F1CFAB
:1042300083E080931E0160911B0170911C018091AD
:104240001D0190911E010E94032108950E940621E4
:10425000089581E080931E0160911B0170911C0103
:1042600080911D0190911E010E94032108950E94DA
:104270002921089591E0811101C090E090931D01E2
:1042800060911B0170911C0180911D0190911E0194
:104290000E940321089580911D01089580931C01BF
:1042A00060911B0170911C0180911D0190911E0174
:1042B0000E940321089580911C01089580931B01A1
:1042C00060911B0170911C0180911D0190911E0154
:1042D0000E940321089580911B0108950895089577
:1042E0000E946F210895089508950E946E210895F7
:1042F0000E9473210E944F140E94742180E00E944A
:10430000EF1391E0811101C090E0892F089585B7E6
:10431000806885BF85B7806885BF08951F921FB6E6
:104320001F9211248F939F93AF93BF9380917A0232
:10433000811113C08091A2039091A303A091A403C3
:10434000B091A5034196A11DB11D8093A203909346
:10435000A303A093A403B093A503BF91AF919F9132
:104360008F911F901FBE1F9018958091AA038430D3
:1043700031F10E94200710927A0288E190E020E457
:104380000FB6F894A895809360000FBE209360004C
:1043900083B7817F846083BF83B7816083BF789454
:1043A000889583B78E7F83BF0FB6F894A8958091C8
:1043B0006000886180936000109260000FBE0895D5
:1043C0000E949F0A0E942707089582E084BD93E01F
:1043D00095BD9AEF97BD80936E0008952FB7F8941E
:1043E0008091A2039091A303A091A403B091A5038F
:1043F0002FBF08952FB7F8946091A2037091A30383
:104400008091A4039091A5032FBF08959C014FB7FD
:10441000F8948091A2039091A303A091A403B0917A
:10442000A5034FBF821B930B089578941F921FB66C
:104430001F9211248F939F93AF93BF938091A203F8
:104440009091A303A091A403B091A5030196A11D8F
:10445000B11D8093A2039093A303A093A403B093F0
:10446000A503BF91AF919F918F911F901FBE1F9089
:10447000189581E08093E00080E28093D80010924C
:10448000C9008FE19EE40197F1F700C0000087E0CA
:1044900090EBDC018093B3039093B403A093B50336
:1044A000B093B60388E19CE00FB6F894A89580938A
:1044B00060000FBE90936000FFCF88E19CE00FB6D4
:1044C000F894A895809360000FBE90936000FFCF92
:1044D000873901F178F48633F9F030F48433F1F060
:1044E0008533F1F08FE108958439E1F08639D1F711
:1044F00081E20895843FC1F030F4803FB9F0813FFC
:1045000089F781E00895863F99F0A0F0873F51F741
:1045100087E0089582E2089585E2089583E2089590
:1045200084E2089580E2089584E0089580E008958B
:1045300086E0089585E0089596E890937A00982F94
:104540009072906890937B008F7190911F01892BDE
:1045500080937C0080917A00806480937A008091BF
:104560007A0086FDFCCF80917800209179009091AF
:104570007A009F7790937A00922F08950E94682284
:104580000E949C22089508959B01BA019091AA036C
:104590009430E9F48F708093E9009FEF8091E800F8
:1045A000915085FD06C085ED8A95F1F700009111C7
:1045B000F5CF8091E80085FF0AC050E040E0C901D6
:1045C0000E9406258091E8008E778093E800089588
:1045D00043E050E0BC0184E00E94C422089546E01C
:1045E00050E0BC0184E00E94C4220895CF93DF9381
:1045F000EC010E944B2148E050E0BE0181E00E94A6
:10460000C42288E0FE01ABE7B2E001900D928A95EA
:10461000E1F7DF91CF910895603231F440E250E04C
:10462000BC0182E00E94C4220895A0E2B0E0EBE168
:10463000F3E20C94BF2B8091AA03843009F583E048
:104640008093E9008091E80082FF1AC08091E80021
:1046500090E085FF09C050E040E060E270E0CE01EC
:1046600001960E94552591E08091E8008B77809318
:10467000E800992329F060E2CE0101960E942C1FE8
:10468000A096E2E00C94DB2B8091A903811109C074
:104690000E94E5260E9442278091E2008460809378
:1046A000E20008951092A90308950E94292181E053
:1046B0000E943A2108956091A60381E0611101C032
:1046C00080E00E94182108959091AA0381E094301F
:1046D00009F080E06091A6030E942621089542E03F
:1046E00061EC81E00E94612642E261EC84E00E947C
:1046F000612642E261EC82E00E94612642E260ECC7
:1047000083E00E9461269091AA0381E0943009F031
:1047100080E06091A6030E94062108958091AC0379
:10472000833009F463C030F48130E1F1823009F460
:10473000A0C008958A3009F48CC08B3009F471C090
:10474000893009F052C08091AB03813209F04DC02D
:104750008091AF039091B003009719F0029709F090
:1047600044C08091E800877F8093E8008091E80052
:1047700082FF37C09091F3008091F200029731F4EC
:104780008091F100813011F0863021F48091F100A8
:104790000E944E218091E8008B778093E8000E9470
:1047A000952623C08091AB03813AF9F48091E8000B
:1047B000877F8093E8008091AF039091B003892BAD
:1047C00061F468E08BE792E070E00E94A42580919C
:1047D000E8008B778093E800089560E090E080E047
:1047E000F3CF8091AA038111C1CF08958091AB03CB
:1047F000813AD9F78091AF039091B003892BA9F743
:104800008091E800877F8093E8008091E80080FF36
:10481000FCCF0E944B218093F1008091E8008E77BD
:10482000BCCF8091AB03813201F78091AF039091AF
:10483000B003892BD1F68091E800877F8093E80050
:104840000E9495268091AD030E943A210E949F0A02
:1048500008958091AB03813241F68091E800877F13
:104860008093E8000E9495268091AE030E945E210D
:1048700008958091AB03813A09F0B7CF8091E800A9
:10488000877F8093E8008091E80080FFFCCF0E9442
:104890006B21C1CF84B7877F84BF0FB6F894A895EA
:1048A00080916000886180936000109260000FBE6C
:1048B00080E890E00FB6F8948093610090936100D7
:1048C0000FBE0E94372108950E94E5260E944227CC
:1048D000E2EEF0E080818460808378940E94C129B8
:1048E000089580E291E00E94F51F08958091AA0347
:1048F000853031F48091AA03853019F00E94E021BF
:1049000008950E94B5210E947821882399F380910F
:10491000A803882379F30E94F0240E949F0AEACF1B
:1049200008959A014091B1035091B2030E949924D5
:104930000895492F55274330510521F168F441303E
:10494000510509F443C04230510509F444C090E0D8
:1049500080E050E040E026C04132510551F1423242
:104960005105A9F76330710590F7FB01EE0FFF1FAA
:10497000E854FE4F408151816B547E4FFB01808192
:1049800090E010C099278130910581F0009729F0BF
:104990000297E9F6ECEAF1E002C0ECEDF1E0849177
:1049A00090E0AF01F901518340830895ECECF1E010
:1049B000F6CF6330710558F6660F771FFB01E2549E
:1049C000FE4F4081518189E090E0ECCF82E190E0A0
:1049D0004BE352E0E7CF8BE590E040EE51E0E2CFD1
:1049E00080E189BD82E189BD09B400FEFDCF8091DF
:1049F000D8008F7D8093D8008091E0008260809302
:104A0000E0008091E00081FDFCCF0895AF92BF925D
:104A1000CF92DF92FF920F931F93CF93DF936C019E
:104A2000EB018A010E94B426F82E811123C00115E2
:104A3000110539F0F80180819181C81BD90BC80E8E
:104A4000D91EB12CA12C2097A9F08091E80085FDFA
:104A500022C08091E8008E778093E800011511054F
:104A6000A1F0F80180819181A80EB91EB182A082C7
:104A700085E0F82E8F2DDF91CF911F910F91FF9040
:104A8000DF90CF90BF90AF9008950E94B426882306
:104A9000D1F2F82EEFCFF60181916F018093F100F2
:104AA0002197FFEFAF1ABF0ACECFAF92BF92CF923E
:104AB000DF92FF920F931F93CF93DF936C01EB0173
:104AC0008A010E94B426F82E811123C00115110518
:104AD00039F0F80180819181C81BD90BC80ED91E0D
:104AE000B12CA12C2097A9F08091E80085FD22C06F
:104AF0008091E8008B778093E80001151105A1F003
:104B0000F80180819181A80EB91EB182A08285E052
:104B1000F82E8F2DDF91CF911F910F91FF90DF9095
:104B2000CF90BF90AF9008950E94B4268823D1F211
:104B3000F82EEFCF8091F100F60181936F0121975C
:104B4000FFEFAF1ABF0ACECFFC018091B103909165
:104B5000B20386179707A0F06115710529F49091AB
:104B6000E8009E779093E80090E06115710551F49C
:104B7000911108C08091E80082FF34C080E0089560
:104B8000BC01F2CF8091AA038823C1F18530C1F125
:104B90008091E80083FD30C08091E80082FDEACF7B
:104BA0008091E80080FFE1CF8091F3002091F20036
:104BB000382F6115710519F02830310558F091E052
:104BC0002830310509F090E02091E8002E772093FD
:104BD000E800CBCF81918093F100615071092F5F84
:104BE0003F4FE7CF8091AA03882341F0853041F001
:104BF0008091E80083FFBECF81E0089582E00895B0
:104C000083E00895FC018091B1039091B20386176F
:104C10009707A0F06115710529F48091E8008E775F
:104C20008093E80090E06115710551F4911108C07E
:104C30008091E80082FF35C080E00895BC01F2CF8A
:104C40008091AA038823C9F18530C9F18091E800D9
:104C500083FD31C08091E80082FDEACF8091E800B9
:104C600080FFE1CF8091F3002091F200382F611591
:104C7000710519F02830310558F091E028303105E0
:104C800009F090E08091E8008E778093E800CBCF28
:104C900084918093F1003196615071092F5F3F4FED
:104CA000E6CF8091AA03882341F0853041F08091BE
:104CB000E80083FFBDCF81E0089582E0089583E09E
:104CC0000895982F973028F08F708093E90081E045
:104CD00008959093E900242F762F50E0981731F033
:104CE0007091EC002091ED005091F00021FD02C088
:104CF0009F5FE8CF3091EB003E7F3093EB00309127
:104D0000ED003D7F3093ED003091EB00316030934A
:104D1000EB007093EC002093ED005093F000209195
:104D2000EE0027FDE5CF80E008958091AB0387FF7B
:104D300013C08091E80082FF06C08091E8008B7765
:104D40008093E80004C08091AA038111F2CF0895F6
:104D50008091AA038823D9F38091E80080FFF8CFDF
:104D60008091E8008E77ECCF2091E4003091E5004F
:104D700095E6A9012091EC00822F817020FF06C0EA
:104D80008091E80080FF06C080E008952091E8004F
:104D900022FD1AC08091AA03882389F0853089F00A
:104DA0008091EB0085FD0FC02091E4003091E5007B
:104DB00042175307F9F29150E1F684E0089582E03A
:104DC000089583E0089581E008950E9454270E9489
:104DD0005C27E0EEF0E0808181608083E8EDF0E028
:104DE00080818F77808319BCA7EDB0E08C918E7F96
:104DF0008C9380818F7E80831092A90308950F93F6
:104E00001F93CF93DF930E9454270E945C27C8ED25
:104E1000D0E088818F7788838881806888838881C3
:104E20008F7D888319BC1092AA031092A60310925A
:104E3000A8031092A70300EE10E0F80180818B7F99
:104E4000808388818160888342E060E080E00E9406
:104E50006126E1EEF0E080818E7F8083E2EEF0E07B
:104E6000808181608083808188608083F801808177
:104E70008E7F8083888180618883DF91CF911F91AD
:104E80000F910895E8EDF0E080818F7E8083E7ED5B
:104E9000F0E080818160808384E082BF81E0809344
:104EA000A9030E94FF260895E8EDF0E080818E7F3F
:104EB00080831092E20008951092DA001092E100CF
:104EC00008951F920F920FB60F9211242F933F93C4
:104ED0004F935F936F937F938F939F93AF93BF9302
:104EE000EF93FF938091E10082FF0BC08091E2007D
:104EF00082FF07C08091E1008B7F8093E1000E94D8
:104F0000C0298091DA0080FF19C08091D80080FF0D
:104F100015C08091DA008E7F8093DA008091D900ED
:104F200080FF96C080E189BD82E189BD09B400FEA1
:104F3000FDCF81E08093AA030E9444238091E10089
:104F400080FF19C08091E20080FF15C08091E200CF
:104F50008E7F8093E2008091E20080618093E20086
:104F60008091D80080628093D80019BC85E080933E
:104F7000AA030E945B238091E10084FF2BC08091F3
:104F8000E20084FF27C080E189BD82E189BD89B547
:104F9000982F917080FFFBCF8091D8008F7D8093F8
:104FA000D8008091E1008F7E8093E1008091E20043
:104FB0008F7E8093E2008091E20081608093E20026
:104FC0008091A603882309F449C084E08093AA0352
:104FD0000E9464238091E10083FF29C08091E20058
:104FE00083FF25C08091E100877F8093E10082E00C
:104FF0008093AA031092A6038091E1008E7F809394
:10500000E1008091E2008E7F8093E2008091E200D7
:1050100080618093E20042E060E080E00E946126CF
:105020008091F00088608093F0000E945523FF91EA
:10503000EF91BF91AF919F918F917F916F915F9110
:105040004F913F912F910F900FBE0F901F90189589
:1050500019BC1092AA030E94522370CF8091E300E2
:1050600087FD93E09093AA03B3CF1F920F920FB6E0
:105070000F9211242F933F934F935F936F937F93DE
:105080008F939F93AF93BF93CF93DF93EF93FF9350
:10509000D091E900DF708091EC00C82FC17080FDD5
:1050A000C0E81092E9008091F000877F8093F000C3
:1050B00078940E9479281092E9008091F00088602D
:1050C0008093F000CD2BCF70C093E900FF91EF915A
:1050D000DF91CF91BF91AF919F918F917F916F9110
:1050E0005F914F913F912F910F900FBE0F901F90A6
:1050F0001895AAE2B0E0EFE7F8E20C94BE2B8BEA39
:1051000093E02091F100FC012193CF01F3E0833B78
:105110009F07B9F70E948E238091E80083FF1EC18C
:105120008091AB039091AC039A3008F017C1E92F3E
:10513000F0E0E256F34D0C94A22B803899F08238BF
:1051400009F00CC18091AF038F70873008F006C161
:105150008093E9008091EB0085FB882780F910920D
:10516000E90006C08091A7039091A8039111826085
:105170009091E800977F9093E8008093F10010925F
:10518000F1008091E8008E77E5C0882309F4D3C050
:10519000823009F0E3C08091AD038111D6C08091C7
:1051A000AF038F702FEF280F263008F0D7C0809301
:1051B000E9002091EB0020FFC8C0933031F48091CA
:1051C000EB0080628093EB00C0C09091EB00906197
:1051D0009093EB0021E030E001C0220F8A95EAF7BE
:1051E0002093EA001092EA008091EB008860EACFF9
:1051F0008111B4C01091AD031F778091E3008078D6
:10520000812B8093E3008091E800877F8093E80002
:105210000E9495268091E80080FFFCCF8091E300FA
:1052200080688093E30082E0111183E08093AA03F9
:1052300095C08058823008F091C08091AD03909164
:10524000AE038C3D23E09207A1F583E08A838AE2D6
:1052500089834FB7F894DE01139620E03EE051E2D7
:10526000E32FF0E050935700E49120FF03C0E29554
:10527000EF703F5FEF708E2F90E0EA30C0F0C7967E
:105280008D939D932F5F243159F74FBF8091E80094
:10529000877F8093E8006AE270E0CE0101960E9469
:1052A000A4258091E8008B778093E80057C0C096D2
:1052B000E7CF6091AF037091B003AE014F5F5F4FD6
:1052C0000E949124BC01892B09F448C09091E80008
:1052D000977F9093E80089819A810E940226E1CF0E
:1052E0008038E1F58091E800877F8093E800809125
:1052F000A6038093F10045CF811130C09091AD039A
:10530000923060F58091E800877F8093E800909369
:10531000A6030E9495268091A603882311F084E0BD
:1053200005C08091E30087FDFACF81E08093AA0356
:105330000E946F2313C08091AD03813079F481E026
:10534000933009F080E08093A8031092E9008091E7
:10535000E800877F8093E8000E9495268091E8000E
:1053600083FF0AC08091E800877F8093E8008091E6
:10537000EB0080628093EB00AA96E3E00C94DA2BBA
:105380000895CF938091AA038823A1F0C091E900EA
:10539000CF709091EC00892F817090FD80E8C82B30
:1053A0001092E9008091E80083FD0E947928CF7077
:1053B000C093E900CF9108955058BB27AA270E94B7
:1053C000F4290C94D32A0E94C52A38F00E94CC2AD2
:1053D00020F039F49F3F19F426F40C94C22A0EF4FD
:1053E000E095E7FB0C94BC2AE92F0E94E42A58F3CD
:1053F000BA17620773078407950720F079F4A6F5BA
:105400000C94062B0EF4E0950B2EBA2FA02D0B0159
:10541000B90190010C01CA01A0011124FF27591BF9
:1054200099F0593F50F4503E68F11A16F040A22FFF
:10543000232F342F4427585FF3CF46953795279570
:10544000A795F0405395C9F77EF41F16BA0B620B6F
:10545000730B840BBAF09150A1F0FF0FBB1F661FB6
:10546000771F881FC2F70EC0BA0F621F731F841FF9
:1054700048F4879577956795B795F7959E3F08F01F
:10548000B0CF9395880F08F09927EE0F97958795E1
:1054900008950E94502A6894B1110C94072B089526
:1054A0000E94EC2A88F09F5798F0B92F9927B7519E
:1054B000B0F0E1F0660F771F881F991F1AF0BA95B8
:1054C000C9F714C0B13091F00E94062BB1E00895E5
:1054D0000C94062B672F782F8827B85F39F0B93FD7
:1054E000CCF3869577956795B395D9F73EF490956B
:1054F0008095709561957F4F8F4F9F4F0895E894E9
:1055000009C097FB3EF490958095709561957F4F0B
:105510008F4F9F4F9923A9F0F92F96E9BB279395B9
:10552000F695879577956795B795F111F8CFFAF4C9
:10553000BB0F11F460FF1BC06F5F7F4F8F4F9F4FFA
:1055400016C0882311F096E911C0772321F09EE858
:10555000872F762F05C0662371F096E8862F70E0BE
:1055600060E02AF09A95660F771F881FDAF7880F98
:105570009695879597F9089597F99F6780E870E069
:1055800060E008959FEF80EC089500240A941616B9
:10559000170618060906089500240A941216130621
:1055A000140605060895092E0394000C11F48823AF
:1055B00052F0BB0F40F4BF2B11F460FF04C06F5FCB
:1055C0007F4F8F4F9F4F089557FD9058440F551FA1
:1055D00059F05F3F71F04795880F97FB991F61F075
:1055E0009F3F79F087950895121613061406551FEC
:1055F000F2CF4695F1DF08C0161617061806991F58
:10560000F1CF86957105610508940895E894BB274C
:1056100066277727CB0197F908950E94202B0C94D9
:10562000D32A0E94C52A38F00E94CC2A20F0952364
:1056300011F00C94BC2A0C94C22A11240C94072B50
:105640000E94E42A70F3959FC1F3950F50E0551F17
:10565000629FF001729FBB27F00DB11D639FAA27C7
:10566000F00DB11DAA1F649F6627B00DA11D661F16
:10567000829F2227B00DA11D621F739FB00DA11D37
:10568000621F839FA00D611D221F749F3327A00DF1
:10569000611D231F849F600D211D822F762F6A2F8D
:1056A00011249F5750409AF0F1F088234AF0EE0FF2
:1056B000FF1FBB1F661F771F881F91505040A9F71F
:1056C0009E3F510580F00C94BC2A0C94072B5F3F41
:1056D000E4F3983ED4F3869577956795B795F7955B
:1056E000E7959F5FC1F7FE2B880F911D96958795D3
:1056F00097F90895AA1BBB1B51E107C0AA1FBB1F46
:10570000A617B70710F0A61BB70B881F991F5A954D
:10571000A9F780959095BC01CD01089597FB072EC0
:1057200016F4009407D077FD09D00E947A2B07FC6D
:1057300005D03EF4909581959F4F089570956195A1
:105740007F4F0895EE0FFF1F0590F491E02D09940F
:1057500069279627692778278727782708952F9222
:105760003F924F925F926F927F928F929F92AF92F1
:10577000BF92CF92DF92EF92FF920F931F93CF933E
:10578000DF93CDB7DEB7CA1BDB0B0FB6F894DEBFD5
:105790000FBECDBF09942A88398848885F846E84FB
:1057A0007D848C849B84AA84B984C884DF80EE8045
:1057B000FD800C811B81AA81B981CE0FD11D0FB64E
:1057C000F894DEBF0FBECDBFED010895FB01DC01F3
:1057D00004C08D910190801921F441505040C8F7C8
:1057E000881B990B0895FB01DC0102C001900D920A
:1057F00041505040D8F70895F999FECF92BD81BD30
:10580000F89A992780B50895A6E1B0E044E050E009
:105810000C94462CA8E1B0E042E050E00C94462CF9
:10582000DC01A40FB51F4150504048F0CB01840F5C
:10583000951F2E910E94212C41505040D0F7089581
:10584000262FF999FECF92BD81BDF89A019700B439
:10585000021639F01FBA20BD0FB6F894FA9AF99AD9
:105860000FBE08950396272F0E94212C0E94202C02
:10587000252F0E94212C242F0C94212C0196272FB8
:105880000E94212C0C94202CDC01CB01FC01F99905
:10589000FECF06C0F2BDE1BDF89A319600B40D927C
:1058A00041505040B8F70895F894FFCFA508A508D7
:1058B000F508F5085A097609D408D4087B09E209E5
:1058C000F109F1098919FD1991195B195F199519E8
:1058D00063199919A5196F19F6197319A919771967
:1058E000AD19D5197B19B119DC198119B719BF196F
:1058F00067199D196B19A1198519BB19CB19E519E0
:10590000F41955198D19041A3C1E421E2B1E361E01
:10591000481E4E1E541E411F4D1F7F1F911F9C1F6E
:10592000A71FAA1FAA1FAA1F531F531FAF1FB31FD2
:10593000BB1FC81FD51FD81FDB1FE81F9D28C52808
:10594000AE29C528AE29F8281929AE2970297C2945
:10595000F4F058028403B004400660092B02AD0144
:10596000280850011E0A1401030201000001004032
:105970005B21F622C322EF22E822356790919395AE
:1059800096F1F3F5F6F7E200E900EA00B500B6009B
:10599000B700CD008301CC008A019201940121025D
:1059A000230224022502260227022A02B300B400A1
:1059B0006F0070009F01CB019F02A002818283E2F1
:1059C00000E900EA00B500B600B700CD008301CCC5
:1059D000008A019201940121022302240225022659
:1059E0000227022A02B300B4006F0070009F01CBAF
:1059F000019F02A0028182839492C6369770168519
:105A0000163A161F1644227BEA024D026F02F2017B
:045A10000B022B0258
:00000001FF
